{
  "_format": "hh-sol-artifact-1",
  "contractName": "SmileyERC721A",
  "sourceName": "contracts/SmileyERC721A.sol",
  "abi": [
    {
      "inputs": [
        {
          "internalType": "bytes32",
          "name": "_merkleRoot",
          "type": "bytes32"
        },
        {
          "internalType": "string",
          "name": "_baseURI",
          "type": "string"
        }
      ],
      "stateMutability": "nonpayable",
      "type": "constructor"
    },
    {
      "inputs": [],
      "name": "ApprovalCallerNotOwnerNorApproved",
      "type": "error"
    },
    {
      "inputs": [],
      "name": "ApprovalQueryForNonexistentToken",
      "type": "error"
    },
    {
      "inputs": [],
      "name": "ApproveToCaller",
      "type": "error"
    },
    {
      "inputs": [],
      "name": "BalanceQueryForZeroAddress",
      "type": "error"
    },
    {
      "inputs": [],
      "name": "InvalidQueryRange",
      "type": "error"
    },
    {
      "inputs": [],
      "name": "MintERC2309QuantityExceedsLimit",
      "type": "error"
    },
    {
      "inputs": [],
      "name": "MintToZeroAddress",
      "type": "error"
    },
    {
      "inputs": [],
      "name": "MintZeroQuantity",
      "type": "error"
    },
    {
      "inputs": [],
      "name": "OwnerQueryForNonexistentToken",
      "type": "error"
    },
    {
      "inputs": [],
      "name": "OwnershipNotInitializedForExtraData",
      "type": "error"
    },
    {
      "inputs": [],
      "name": "TransferCallerNotOwnerNorApproved",
      "type": "error"
    },
    {
      "inputs": [],
      "name": "TransferFromIncorrectOwner",
      "type": "error"
    },
    {
      "inputs": [],
      "name": "TransferToNonERC721ReceiverImplementer",
      "type": "error"
    },
    {
      "inputs": [],
      "name": "TransferToZeroAddress",
      "type": "error"
    },
    {
      "inputs": [],
      "name": "URIQueryForNonexistentToken",
      "type": "error"
    },
    {
      "anonymous": false,
      "inputs": [
        {
          "indexed": true,
          "internalType": "address",
          "name": "owner",
          "type": "address"
        },
        {
          "indexed": true,
          "internalType": "address",
          "name": "approved",
          "type": "address"
        },
        {
          "indexed": true,
          "internalType": "uint256",
          "name": "tokenId",
          "type": "uint256"
        }
      ],
      "name": "Approval",
      "type": "event"
    },
    {
      "anonymous": false,
      "inputs": [
        {
          "indexed": true,
          "internalType": "address",
          "name": "owner",
          "type": "address"
        },
        {
          "indexed": true,
          "internalType": "address",
          "name": "operator",
          "type": "address"
        },
        {
          "indexed": false,
          "internalType": "bool",
          "name": "approved",
          "type": "bool"
        }
      ],
      "name": "ApprovalForAll",
      "type": "event"
    },
    {
      "anonymous": false,
      "inputs": [
        {
          "indexed": true,
          "internalType": "uint256",
          "name": "fromTokenId",
          "type": "uint256"
        },
        {
          "indexed": false,
          "internalType": "uint256",
          "name": "toTokenId",
          "type": "uint256"
        },
        {
          "indexed": true,
          "internalType": "address",
          "name": "from",
          "type": "address"
        },
        {
          "indexed": true,
          "internalType": "address",
          "name": "to",
          "type": "address"
        }
      ],
      "name": "ConsecutiveTransfer",
      "type": "event"
    },
    {
      "anonymous": false,
      "inputs": [
        {
          "indexed": true,
          "internalType": "contract IERC20",
          "name": "token",
          "type": "address"
        },
        {
          "indexed": false,
          "internalType": "address",
          "name": "to",
          "type": "address"
        },
        {
          "indexed": false,
          "internalType": "uint256",
          "name": "amount",
          "type": "uint256"
        }
      ],
      "name": "ERC20PaymentReleased",
      "type": "event"
    },
    {
      "anonymous": false,
      "inputs": [
        {
          "indexed": true,
          "internalType": "address",
          "name": "previousOwner",
          "type": "address"
        },
        {
          "indexed": true,
          "internalType": "address",
          "name": "newOwner",
          "type": "address"
        }
      ],
      "name": "OwnershipTransferred",
      "type": "event"
    },
    {
      "anonymous": false,
      "inputs": [
        {
          "indexed": false,
          "internalType": "address",
          "name": "account",
          "type": "address"
        },
        {
          "indexed": false,
          "internalType": "uint256",
          "name": "shares",
          "type": "uint256"
        }
      ],
      "name": "PayeeAdded",
      "type": "event"
    },
    {
      "anonymous": false,
      "inputs": [
        {
          "indexed": false,
          "internalType": "address",
          "name": "from",
          "type": "address"
        },
        {
          "indexed": false,
          "internalType": "uint256",
          "name": "amount",
          "type": "uint256"
        }
      ],
      "name": "PaymentReceived",
      "type": "event"
    },
    {
      "anonymous": false,
      "inputs": [
        {
          "indexed": false,
          "internalType": "address",
          "name": "to",
          "type": "address"
        },
        {
          "indexed": false,
          "internalType": "uint256",
          "name": "amount",
          "type": "uint256"
        }
      ],
      "name": "PaymentReleased",
      "type": "event"
    },
    {
      "anonymous": false,
      "inputs": [
        {
          "indexed": true,
          "internalType": "address",
          "name": "from",
          "type": "address"
        },
        {
          "indexed": true,
          "internalType": "address",
          "name": "to",
          "type": "address"
        },
        {
          "indexed": true,
          "internalType": "uint256",
          "name": "tokenId",
          "type": "uint256"
        }
      ],
      "name": "Transfer",
      "type": "event"
    },
    {
      "inputs": [
        {
          "internalType": "address",
          "name": "to",
          "type": "address"
        },
        {
          "internalType": "uint256",
          "name": "tokenId",
          "type": "uint256"
        }
      ],
      "name": "approve",
      "outputs": [],
      "stateMutability": "nonpayable",
      "type": "function"
    },
    {
      "inputs": [
        {
          "internalType": "address",
          "name": "owner",
          "type": "address"
        }
      ],
      "name": "balanceOf",
      "outputs": [
        {
          "internalType": "uint256",
          "name": "",
          "type": "uint256"
        }
      ],
      "stateMutability": "view",
      "type": "function"
    },
    {
      "inputs": [],
      "name": "baseURI",
      "outputs": [
        {
          "internalType": "string",
          "name": "",
          "type": "string"
        }
      ],
      "stateMutability": "view",
      "type": "function"
    },
    {
      "inputs": [
        {
          "internalType": "uint256",
          "name": "tokenId",
          "type": "uint256"
        }
      ],
      "name": "explicitOwnershipOf",
      "outputs": [
        {
          "components": [
            {
              "internalType": "address",
              "name": "addr",
              "type": "address"
            },
            {
              "internalType": "uint64",
              "name": "startTimestamp",
              "type": "uint64"
            },
            {
              "internalType": "bool",
              "name": "burned",
              "type": "bool"
            },
            {
              "internalType": "uint24",
              "name": "extraData",
              "type": "uint24"
            }
          ],
          "internalType": "struct IERC721A.TokenOwnership",
          "name": "",
          "type": "tuple"
        }
      ],
      "stateMutability": "view",
      "type": "function"
    },
    {
      "inputs": [
        {
          "internalType": "uint256[]",
          "name": "tokenIds",
          "type": "uint256[]"
        }
      ],
      "name": "explicitOwnershipsOf",
      "outputs": [
        {
          "components": [
            {
              "internalType": "address",
              "name": "addr",
              "type": "address"
            },
            {
              "internalType": "uint64",
              "name": "startTimestamp",
              "type": "uint64"
            },
            {
              "internalType": "bool",
              "name": "burned",
              "type": "bool"
            },
            {
              "internalType": "uint24",
              "name": "extraData",
              "type": "uint24"
            }
          ],
          "internalType": "struct IERC721A.TokenOwnership[]",
          "name": "",
          "type": "tuple[]"
        }
      ],
      "stateMutability": "view",
      "type": "function"
    },
    {
      "inputs": [
        {
          "internalType": "uint256",
          "name": "tokenId",
          "type": "uint256"
        }
      ],
      "name": "getApproved",
      "outputs": [
        {
          "internalType": "address",
          "name": "",
          "type": "address"
        }
      ],
      "stateMutability": "view",
      "type": "function"
    },
    {
      "inputs": [
        {
          "internalType": "address",
          "name": "_to",
          "type": "address"
        },
        {
          "internalType": "uint256",
          "name": "_quantity",
          "type": "uint256"
        }
      ],
      "name": "gift",
      "outputs": [],
      "stateMutability": "nonpayable",
      "type": "function"
    },
    {
      "inputs": [
        {
          "internalType": "address",
          "name": "owner",
          "type": "address"
        },
        {
          "internalType": "address",
          "name": "operator",
          "type": "address"
        }
      ],
      "name": "isApprovedForAll",
      "outputs": [
        {
          "internalType": "bool",
          "name": "",
          "type": "bool"
        }
      ],
      "stateMutability": "view",
      "type": "function"
    },
    {
      "inputs": [],
      "name": "isPaused",
      "outputs": [
        {
          "internalType": "bool",
          "name": "",
          "type": "bool"
        }
      ],
      "stateMutability": "view",
      "type": "function"
    },
    {
      "inputs": [],
      "name": "merkleRoot",
      "outputs": [
        {
          "internalType": "bytes32",
          "name": "",
          "type": "bytes32"
        }
      ],
      "stateMutability": "view",
      "type": "function"
    },
    {
      "inputs": [],
      "name": "name",
      "outputs": [
        {
          "internalType": "string",
          "name": "",
          "type": "string"
        }
      ],
      "stateMutability": "view",
      "type": "function"
    },
    {
      "inputs": [],
      "name": "owner",
      "outputs": [
        {
          "internalType": "address",
          "name": "",
          "type": "address"
        }
      ],
      "stateMutability": "view",
      "type": "function"
    },
    {
      "inputs": [
        {
          "internalType": "uint256",
          "name": "tokenId",
          "type": "uint256"
        }
      ],
      "name": "ownerOf",
      "outputs": [
        {
          "internalType": "address",
          "name": "",
          "type": "address"
        }
      ],
      "stateMutability": "view",
      "type": "function"
    },
    {
      "inputs": [
        {
          "internalType": "uint256",
          "name": "index",
          "type": "uint256"
        }
      ],
      "name": "payee",
      "outputs": [
        {
          "internalType": "address",
          "name": "",
          "type": "address"
        }
      ],
      "stateMutability": "view",
      "type": "function"
    },
    {
      "inputs": [
        {
          "internalType": "address",
          "name": "_account",
          "type": "address"
        },
        {
          "internalType": "uint256",
          "name": "_quantity",
          "type": "uint256"
        }
      ],
      "name": "publicMint",
      "outputs": [],
      "stateMutability": "payable",
      "type": "function"
    },
    {
      "inputs": [],
      "name": "publicSalePrice",
      "outputs": [
        {
          "internalType": "uint256",
          "name": "",
          "type": "uint256"
        }
      ],
      "stateMutability": "view",
      "type": "function"
    },
    {
      "inputs": [
        {
          "internalType": "address",
          "name": "account",
          "type": "address"
        }
      ],
      "name": "releasable",
      "outputs": [
        {
          "internalType": "uint256",
          "name": "",
          "type": "uint256"
        }
      ],
      "stateMutability": "view",
      "type": "function"
    },
    {
      "inputs": [
        {
          "internalType": "contract IERC20",
          "name": "token",
          "type": "address"
        },
        {
          "internalType": "address",
          "name": "account",
          "type": "address"
        }
      ],
      "name": "releasable",
      "outputs": [
        {
          "internalType": "uint256",
          "name": "",
          "type": "uint256"
        }
      ],
      "stateMutability": "view",
      "type": "function"
    },
    {
      "inputs": [
        {
          "internalType": "address payable",
          "name": "account",
          "type": "address"
        }
      ],
      "name": "release",
      "outputs": [],
      "stateMutability": "nonpayable",
      "type": "function"
    },
    {
      "inputs": [
        {
          "internalType": "contract IERC20",
          "name": "token",
          "type": "address"
        },
        {
          "internalType": "address",
          "name": "account",
          "type": "address"
        }
      ],
      "name": "release",
      "outputs": [],
      "stateMutability": "nonpayable",
      "type": "function"
    },
    {
      "inputs": [],
      "name": "releaseAll",
      "outputs": [],
      "stateMutability": "nonpayable",
      "type": "function"
    },
    {
      "inputs": [
        {
          "internalType": "contract IERC20",
          "name": "token",
          "type": "address"
        },
        {
          "internalType": "address",
          "name": "account",
          "type": "address"
        }
      ],
      "name": "released",
      "outputs": [
        {
          "internalType": "uint256",
          "name": "",
          "type": "uint256"
        }
      ],
      "stateMutability": "view",
      "type": "function"
    },
    {
      "inputs": [
        {
          "internalType": "address",
          "name": "account",
          "type": "address"
        }
      ],
      "name": "released",
      "outputs": [
        {
          "internalType": "uint256",
          "name": "",
          "type": "uint256"
        }
      ],
      "stateMutability": "view",
      "type": "function"
    },
    {
      "inputs": [],
      "name": "renounceOwnership",
      "outputs": [],
      "stateMutability": "nonpayable",
      "type": "function"
    },
    {
      "inputs": [
        {
          "internalType": "address",
          "name": "from",
          "type": "address"
        },
        {
          "internalType": "address",
          "name": "to",
          "type": "address"
        },
        {
          "internalType": "uint256",
          "name": "tokenId",
          "type": "uint256"
        }
      ],
      "name": "safeTransferFrom",
      "outputs": [],
      "stateMutability": "nonpayable",
      "type": "function"
    },
    {
      "inputs": [
        {
          "internalType": "address",
          "name": "from",
          "type": "address"
        },
        {
          "internalType": "address",
          "name": "to",
          "type": "address"
        },
        {
          "internalType": "uint256",
          "name": "tokenId",
          "type": "uint256"
        },
        {
          "internalType": "bytes",
          "name": "_data",
          "type": "bytes"
        }
      ],
      "name": "safeTransferFrom",
      "outputs": [],
      "stateMutability": "nonpayable",
      "type": "function"
    },
    {
      "inputs": [],
      "name": "saleStartTime",
      "outputs": [
        {
          "internalType": "uint256",
          "name": "",
          "type": "uint256"
        }
      ],
      "stateMutability": "view",
      "type": "function"
    },
    {
      "inputs": [],
      "name": "sellingStep",
      "outputs": [
        {
          "internalType": "enum SmileyERC721A.Step",
          "name": "",
          "type": "uint8"
        }
      ],
      "stateMutability": "view",
      "type": "function"
    },
    {
      "inputs": [
        {
          "internalType": "address",
          "name": "operator",
          "type": "address"
        },
        {
          "internalType": "bool",
          "name": "approved",
          "type": "bool"
        }
      ],
      "name": "setApprovalForAll",
      "outputs": [],
      "stateMutability": "nonpayable",
      "type": "function"
    },
    {
      "inputs": [
        {
          "internalType": "string",
          "name": "_baseURI",
          "type": "string"
        }
      ],
      "name": "setBaseURI",
      "outputs": [],
      "stateMutability": "nonpayable",
      "type": "function"
    },
    {
      "inputs": [
        {
          "internalType": "bytes32",
          "name": "_merkleRoot",
          "type": "bytes32"
        }
      ],
      "name": "setMerkleRoot",
      "outputs": [],
      "stateMutability": "nonpayable",
      "type": "function"
    },
    {
      "inputs": [
        {
          "internalType": "bool",
          "name": "_isPaused",
          "type": "bool"
        }
      ],
      "name": "setPause",
      "outputs": [],
      "stateMutability": "nonpayable",
      "type": "function"
    },
    {
      "inputs": [
        {
          "internalType": "uint256",
          "name": "_publicSalePrice",
          "type": "uint256"
        }
      ],
      "name": "setPublicSalePrice",
      "outputs": [],
      "stateMutability": "nonpayable",
      "type": "function"
    },
    {
      "inputs": [
        {
          "internalType": "uint256",
          "name": "_saleStartTime",
          "type": "uint256"
        }
      ],
      "name": "setSaleStartTime",
      "outputs": [],
      "stateMutability": "nonpayable",
      "type": "function"
    },
    {
      "inputs": [
        {
          "internalType": "enum SmileyERC721A.Step",
          "name": "_step",
          "type": "uint8"
        }
      ],
      "name": "setStep",
      "outputs": [],
      "stateMutability": "nonpayable",
      "type": "function"
    },
    {
      "inputs": [
        {
          "internalType": "uint256",
          "name": "_wlSalePrice",
          "type": "uint256"
        }
      ],
      "name": "setWlSalePrice",
      "outputs": [],
      "stateMutability": "nonpayable",
      "type": "function"
    },
    {
      "inputs": [
        {
          "internalType": "address",
          "name": "account",
          "type": "address"
        }
      ],
      "name": "shares",
      "outputs": [
        {
          "internalType": "uint256",
          "name": "",
          "type": "uint256"
        }
      ],
      "stateMutability": "view",
      "type": "function"
    },
    {
      "inputs": [
        {
          "internalType": "bytes4",
          "name": "interfaceId",
          "type": "bytes4"
        }
      ],
      "name": "supportsInterface",
      "outputs": [
        {
          "internalType": "bool",
          "name": "",
          "type": "bool"
        }
      ],
      "stateMutability": "view",
      "type": "function"
    },
    {
      "inputs": [],
      "name": "symbol",
      "outputs": [
        {
          "internalType": "string",
          "name": "",
          "type": "string"
        }
      ],
      "stateMutability": "view",
      "type": "function"
    },
    {
      "inputs": [
        {
          "internalType": "uint256",
          "name": "_tokenId",
          "type": "uint256"
        }
      ],
      "name": "tokenURI",
      "outputs": [
        {
          "internalType": "string",
          "name": "",
          "type": "string"
        }
      ],
      "stateMutability": "view",
      "type": "function"
    },
    {
      "inputs": [
        {
          "internalType": "address",
          "name": "owner",
          "type": "address"
        }
      ],
      "name": "tokensOfOwner",
      "outputs": [
        {
          "internalType": "uint256[]",
          "name": "",
          "type": "uint256[]"
        }
      ],
      "stateMutability": "view",
      "type": "function"
    },
    {
      "inputs": [
        {
          "internalType": "address",
          "name": "owner",
          "type": "address"
        },
        {
          "internalType": "uint256",
          "name": "start",
          "type": "uint256"
        },
        {
          "internalType": "uint256",
          "name": "stop",
          "type": "uint256"
        }
      ],
      "name": "tokensOfOwnerIn",
      "outputs": [
        {
          "internalType": "uint256[]",
          "name": "",
          "type": "uint256[]"
        }
      ],
      "stateMutability": "view",
      "type": "function"
    },
    {
      "inputs": [
        {
          "internalType": "contract IERC20",
          "name": "token",
          "type": "address"
        }
      ],
      "name": "totalReleased",
      "outputs": [
        {
          "internalType": "uint256",
          "name": "",
          "type": "uint256"
        }
      ],
      "stateMutability": "view",
      "type": "function"
    },
    {
      "inputs": [],
      "name": "totalReleased",
      "outputs": [
        {
          "internalType": "uint256",
          "name": "",
          "type": "uint256"
        }
      ],
      "stateMutability": "view",
      "type": "function"
    },
    {
      "inputs": [],
      "name": "totalShares",
      "outputs": [
        {
          "internalType": "uint256",
          "name": "",
          "type": "uint256"
        }
      ],
      "stateMutability": "view",
      "type": "function"
    },
    {
      "inputs": [],
      "name": "totalSupply",
      "outputs": [
        {
          "internalType": "uint256",
          "name": "",
          "type": "uint256"
        }
      ],
      "stateMutability": "view",
      "type": "function"
    },
    {
      "inputs": [
        {
          "internalType": "address",
          "name": "from",
          "type": "address"
        },
        {
          "internalType": "address",
          "name": "to",
          "type": "address"
        },
        {
          "internalType": "uint256",
          "name": "tokenId",
          "type": "uint256"
        }
      ],
      "name": "transferFrom",
      "outputs": [],
      "stateMutability": "nonpayable",
      "type": "function"
    },
    {
      "inputs": [
        {
          "internalType": "address",
          "name": "newOwner",
          "type": "address"
        }
      ],
      "name": "transferOwnership",
      "outputs": [],
      "stateMutability": "nonpayable",
      "type": "function"
    },
    {
      "inputs": [
        {
          "internalType": "address",
          "name": "_account",
          "type": "address"
        },
        {
          "internalType": "uint256",
          "name": "_quantity",
          "type": "uint256"
        },
        {
          "internalType": "bytes32[]",
          "name": "_proof",
          "type": "bytes32[]"
        }
      ],
      "name": "whitelistMint",
      "outputs": [],
      "stateMutability": "payable",
      "type": "function"
    },
    {
      "inputs": [],
      "name": "wlSalePrice",
      "outputs": [
        {
          "internalType": "uint256",
          "name": "",
          "type": "uint256"
        }
      ],
      "stateMutability": "view",
      "type": "function"
    },
    {
      "stateMutability": "payable",
      "type": "receive"
    }
  ],
  "bytecode": "0x66038d7ea4c68000601155660aa87bee538000601255636343446060135560c0604052736455489e7a8aff1565b32cb339a87bafbaf9141a60809081527370997970c51812dc3a010c7d01b50e0d17dc79c860a0526200006490601a90600262000594565b50604080518082019091526102bc815261012c60208201526200008c90601b906002620005fe565b503480156200009a57600080fd5b5060405162003c3638038062003c36833981016040819052620000bd91620006ec565b601a8054806020026020016040519081016040528092919081815260200182805480156200011557602002820191906000526020600020905b81546001600160a01b03168152600190910190602001808311620000f6575b5050505050601b8054806020026020016040519081016040528092919081815260200182805480156200016857602002820191906000526020600020905b81548152602001906001019080831162000153575b505050505060405180604001604052806006815260200165536d696c657960d01b81525060405180604001604052806003815260200162534d5960e81b815250620001c2620001bc6200035260201b60201c565b62000356565b8151620001d790600390602085019062000642565b508051620001ed90600490602084019062000642565b50600060015550508051825114620002675760405162461bcd60e51b815260206004820152603260248201527f5061796d656e7453706c69747465723a2070617965657320616e6420736861726044820152710cae640d8cadccee8d040dad2e6dac2e8c6d60731b60648201526084015b60405180910390fd5b6000825111620002ba5760405162461bcd60e51b815260206004820152601a60248201527f5061796d656e7453706c69747465723a206e6f2070617965657300000000000060448201526064016200025e565b60005b8251811015620003265762000311838281518110620002e057620002e0620007d6565b6020026020010151838381518110620002fd57620002fd620007d6565b6020026020010151620003a660201b60201c565b806200031d8162000802565b915050620002bd565b505050601482905580516200034390601590602084019062000642565b5050601a546019555062000878565b3390565b600080546001600160a01b038381166001600160a01b0319831681178455604051919092169283917f8be0079c531659141344cd1fd0a4f28419497f9722a3daafe3b4186f6b6457e09190a35050565b6001600160a01b038216620004135760405162461bcd60e51b815260206004820152602c60248201527f5061796d656e7453706c69747465723a206163636f756e74206973207468652060448201526b7a65726f206164647265737360a01b60648201526084016200025e565b60008111620004655760405162461bcd60e51b815260206004820152601d60248201527f5061796d656e7453706c69747465723a2073686172657320617265203000000060448201526064016200025e565b6001600160a01b0382166000908152600b602052604090205415620004e15760405162461bcd60e51b815260206004820152602b60248201527f5061796d656e7453706c69747465723a206163636f756e7420616c726561647960448201526a206861732073686172657360a81b60648201526084016200025e565b600d8054600181019091557fd7b6990105719101dabeb77144f2a3385c8033acd3af97e9423a695e81ad1eb50180546001600160a01b0319166001600160a01b0384169081179091556000908152600b602052604090208190556009546200054b90829062000820565b600955604080516001600160a01b0384168152602081018390527f40c340f65e17194d14ddddb073d3c9f888e3cb52b5aae0c6c7706b4fbc905fac910160405180910390a15050565b828054828255906000526020600020908101928215620005ec579160200282015b82811115620005ec57825182546001600160a01b0319166001600160a01b03909116178255602090920191600190910190620005b5565b50620005fa929150620006bf565b5090565b828054828255906000526020600020908101928215620005ec579160200282015b82811115620005ec578251829061ffff169055916020019190600101906200061f565b82805462000650906200083b565b90600052602060002090601f016020900481019282620006745760008555620005ec565b82601f106200068f57805160ff1916838001178555620005ec565b82800160010185558215620005ec579182015b82811115620005ec578251825591602001919060010190620006a2565b5b80821115620005fa5760008155600101620006c0565b634e487b7160e01b600052604160045260246000fd5b600080604083850312156200070057600080fd5b8251602080850151919350906001600160401b03808211156200072257600080fd5b818601915086601f8301126200073757600080fd5b8151818111156200074c576200074c620006d6565b604051601f8201601f19908116603f01168101908382118183101715620007775762000777620006d6565b8160405282815289868487010111156200079057600080fd5b600093505b82841015620007b4578484018601518185018701529285019262000795565b82841115620007c65760008684830101525b8096505050505050509250929050565b634e487b7160e01b600052603260045260246000fd5b634e487b7160e01b600052601160045260246000fd5b6000600019821415620008195762000819620007ec565b5060010190565b60008219821115620008365762000836620007ec565b500190565b600181811c908216806200085057607f821691505b602082108114156200087257634e487b7160e01b600052602260045260246000fd5b50919050565b6133ae80620008886000396000f3fe6080604052600436106102cd5760003560e01c80638462151c11610175578063bf332d61116100dc578063ce6df2b911610095578063e33b7de31161006f578063e33b7de314610920578063e985e9c514610935578063f2fde38b1461097e578063f8b89dfb1461099e57600080fd5b8063ce6df2b9146108a1578063ce7c2ac2146108b4578063d79779b2146108ea57600080fd5b8063bf332d61146107cd578063c23dc68f146107ed578063c45ac0501461081a578063c87b56dd1461083a578063cbccefb21461085a578063cbce4c971461088157600080fd5b80639b6860c81161012e5780639b6860c81461071d578063a22cb46514610733578063a3f8eace14610753578063b187bd2614610773578063b88d4fde1461078d578063bedb86fb146107ad57600080fd5b80638462151c146106475780638b83209b146106745780638da5cb5b1461069457806395d89b41146106b25780639852595c146106c757806399a2557a146106fd57600080fd5b806348b75044116102345780636352211e116101ed578063715018a6116101c7578063715018a6146105dc578063734c66bd146105f1578063791a2519146106075780637cb647591461062757600080fd5b80636352211e146105875780636c0360eb146105a757806370a08231146105bc57600080fd5b806348b75044146104d25780634b11faaf146104f2578063525f8a5c1461050557806355f804b3146105255780635bbb2177146105455780635be7fde81461057257600080fd5b80631cbaee2d116102865780631cbaee2d1461040b57806323b872dd146104215780632eb4a7ab146104415780633a98ef3914610457578063406072a91461046c57806342842e0e146104b257600080fd5b806301ffc9a71461031757806306fdde031461034c578063081812fc1461036e578063095ea7b3146103a657806318160ddd146103c857806319165587146103eb57600080fd5b366103125760405162461bcd60e51b815260206004820152601060248201526f13db9b1e481a59881e5bdd481b5a5b9d60821b60448201526064015b60405180910390fd5b600080fd5b34801561032357600080fd5b50610337610332366004612ad3565b6109be565b60405190151581526020015b60405180910390f35b34801561035857600080fd5b50610361610a10565b6040516103439190612b48565b34801561037a57600080fd5b5061038e610389366004612b5b565b610aa2565b6040516001600160a01b039091168152602001610343565b3480156103b257600080fd5b506103c66103c1366004612b89565b610ae6565b005b3480156103d457600080fd5b50600254600154035b604051908152602001610343565b3480156103f757600080fd5b506103c6610406366004612bb5565b610b86565b34801561041757600080fd5b506103dd60135481565b34801561042d57600080fd5b506103c661043c366004612bd2565b610c7c565b34801561044d57600080fd5b506103dd60145481565b34801561046357600080fd5b506009546103dd565b34801561047857600080fd5b506103dd610487366004612c13565b6001600160a01b039182166000908152600f6020908152604080832093909416825291909152205490565b3480156104be57600080fd5b506103c66104cd366004612bd2565b610e0d565b3480156104de57600080fd5b506103c66104ed366004612c13565b610e2d565b6103c6610500366004612c97565b610f4d565b34801561051157600080fd5b506103c6610520366004612b5b565b6112cd565b34801561053157600080fd5b506103c6610540366004612d7d565b6112da565b34801561055157600080fd5b50610565610560366004612dc5565b6112f9565b6040516103439190612e42565b34801561057e57600080fd5b506103c66113c4565b34801561059357600080fd5b5061038e6105a2366004612b5b565b6113f8565b3480156105b357600080fd5b50610361611403565b3480156105c857600080fd5b506103dd6105d7366004612bb5565b611491565b3480156105e857600080fd5b506103c66114df565b3480156105fd57600080fd5b506103dd60115481565b34801561061357600080fd5b506103c6610622366004612b5b565b6114f3565b34801561063357600080fd5b506103c6610642366004612b5b565b611500565b34801561065357600080fd5b50610667610662366004612bb5565b61150d565b6040516103439190612e84565b34801561068057600080fd5b5061038e61068f366004612b5b565b61161c565b3480156106a057600080fd5b506000546001600160a01b031661038e565b3480156106be57600080fd5b5061036161164c565b3480156106d357600080fd5b506103dd6106e2366004612bb5565b6001600160a01b03166000908152600c602052604090205490565b34801561070957600080fd5b50610667610718366004612ebc565b61165b565b34801561072957600080fd5b506103dd60125481565b34801561073f57600080fd5b506103c661074e366004612eff565b6117d8565b34801561075f57600080fd5b506103dd61076e366004612bb5565b61186e565b34801561077f57600080fd5b506018546103379060ff1681565b34801561079957600080fd5b506103c66107a8366004612f2d565b6118af565b3480156107b957600080fd5b506103c66107c8366004612fac565b6118f9565b3480156107d957600080fd5b506103c66107e8366004612b5b565b611914565b3480156107f957600080fd5b5061080d610808366004612b5b565b611921565b6040516103439190612fc9565b34801561082657600080fd5b506103dd610835366004612c13565b611999565b34801561084657600080fd5b50610361610855366004612b5b565b611a64565b34801561086657600080fd5b506010546108749060ff1681565b6040516103439190612fed565b34801561088d57600080fd5b506103c661089c366004612b89565b611aed565b6103c66108af366004612b89565b611bc0565b3480156108c057600080fd5b506103dd6108cf366004612bb5565b6001600160a01b03166000908152600b602052604090205490565b3480156108f657600080fd5b506103dd610905366004612bb5565b6001600160a01b03166000908152600e602052604090205490565b34801561092c57600080fd5b50600a546103dd565b34801561094157600080fd5b50610337610950366004612c13565b6001600160a01b03918216600090815260086020908152604080832093909416825291909152205460ff1690565b34801561098a57600080fd5b506103c6610999366004612bb5565b611f22565b3480156109aa57600080fd5b506103c66109b9366004613015565b611f98565b60006301ffc9a760e01b6001600160e01b0319831614806109ef57506380ac58cd60e01b6001600160e01b03198316145b80610a0a5750635b5e139f60e01b6001600160e01b03198316145b92915050565b606060038054610a1f90613036565b80601f0160208091040260200160405190810160405280929190818152602001828054610a4b90613036565b8015610a985780601f10610a6d57610100808354040283529160200191610a98565b820191906000526020600020905b815481529060010190602001808311610a7b57829003601f168201915b5050505050905090565b6000610aad82611fc7565b610aca576040516333d1c03960e21b815260040160405180910390fd5b506000908152600760205260409020546001600160a01b031690565b6000610af1826113f8565b9050336001600160a01b03821614610b2a57610b0d8133610950565b610b2a576040516367d9dca160e11b815260040160405180910390fd5b60008281526007602052604080822080546001600160a01b0319166001600160a01b0387811691821790925591518593918516917f8c5be1e5ebec7d5bd14f71427d1e84f3dd0314c0f7b2291e5b200ac8c7c3b92591a4505050565b6001600160a01b0381166000908152600b6020526040902054610bbb5760405162461bcd60e51b815260040161030990613071565b6000610bc68261186e565b905080610be55760405162461bcd60e51b8152600401610309906130b7565b6001600160a01b0382166000908152600c602052604081208054839290610c0d908490613118565b9250508190555080600a6000828254610c269190613118565b90915550610c3690508282611fef565b604080516001600160a01b0384168152602081018390527fdf20fd1e76bc69d672e4814fafb2c449bba3a5369d8359adf9e05e6fde87b056910160405180910390a15050565b6000610c8782612108565b9050836001600160a01b0316816001600160a01b031614610cba5760405162a1148160e81b815260040160405180910390fd5b60008281526007602052604090208054338082146001600160a01b03881690911417610d0757610cea8633610950565b610d0757604051632ce44b5f60e11b815260040160405180910390fd5b6001600160a01b038516610d2e57604051633a954ecd60e21b815260040160405180910390fd5b8015610d3957600082555b6001600160a01b038681166000908152600660205260408082208054600019019055918716808252919020805460010190554260a01b17600160e11b17600085815260056020526040902055600160e11b8316610dc45760018401600081815260056020526040902054610dc2576001548114610dc25760008181526005602052604090208490555b505b83856001600160a01b0316876001600160a01b03167fddf252ad1be2c89b69c2b068fc378daa952ba7f163c4a11628f55a4df523b3ef60405160405180910390a4505050505050565b610e28838383604051806020016040528060008152506118af565b505050565b6001600160a01b0381166000908152600b6020526040902054610e625760405162461bcd60e51b815260040161030990613071565b6000610e6e8383611999565b905080610e8d5760405162461bcd60e51b8152600401610309906130b7565b6001600160a01b038084166000908152600f6020908152604080832093861683529290529081208054839290610ec4908490613118565b90915550506001600160a01b0383166000908152600e602052604081208054839290610ef1908490613118565b90915550610f029050838383612169565b604080516001600160a01b038481168252602082018490528516917f3be5b7a71e84ed12875d241991c70855ac5817d847039e17a9d895c1ceb0f18a910160405180910390a2505050565b323314610f9c5760405162461bcd60e51b815260206004820152601e60248201527f5468652063616c6c657220697320616e6f7468657220636f6e747261637400006044820152606401610309565b60185460ff1615610fe45760405162461bcd60e51b815260206004820152601260248201527110dbdb9d1c9858dd081a5cc81c185d5cd95960721b6044820152606401610309565b6013544210156110365760405162461bcd60e51b815260206004820152601860248201527f53616c6520686173206e6f7420737461727465642079657400000000000000006044820152606401610309565b6013546110469062127500613118565b42106110875760405162461bcd60e51b815260206004820152601060248201526f14d85b19481a5cc8199a5b9a5cda195960821b6044820152606401610309565b601154806110c45760405162461bcd60e51b815260206004820152600a6024820152690507269636520697320360b41b6044820152606401610309565b600160105460ff1660048111156110dd576110dd612fd7565b1461112a5760405162461bcd60e51b815260206004820152601f60248201527f57686974656c6973742073616c65206973206e6f7420616374697661746564006044820152606401610309565b6111353384846121bb565b6111735760405162461bcd60e51b815260206004820152600f60248201526e139bdd081dda1a5d195b1a5cdd1959608a1b6044820152606401610309565b33600090815260166020526040902054600190611191908690613118565b11156111eb5760405162461bcd60e51b815260206004820152602360248201527f596f752063616e206f6e6c79206765742031204e4654206f6e2077686974656c6044820152621a5cdd60ea1b6064820152608401610309565b6005846111fb6002546001540390565b6112059190613118565b11156112495760405162461bcd60e51b815260206004820152601360248201527213585e081cdd5c1c1b1e48195e18d959591959606a1b6044820152606401610309565b6112538482613130565b3410156112975760405162461bcd60e51b81526020600482015260126024820152714e6f7420656e6f7567687420666f756e647360701b6044820152606401610309565b33600090815260166020526040812080548692906112b6908490613118565b909155506112c69050858561223c565b5050505050565b6112d5612256565b601355565b6112e2612256565b80516112f5906015906020840190612a24565b5050565b6060816000816001600160401b0381111561131657611316612cf2565b60405190808252806020026020018201604052801561136857816020015b6040805160808101825260008082526020808301829052928201819052606082015282526000199092019101816113345790505b50905060005b8281146113bb5761139686868381811061138a5761138a61314f565b90506020020135611921565b8282815181106113a8576113a861314f565b602090810291909101015260010161136e565b50949350505050565b60005b6019548160ff1610156113f5576113e36104068260ff1661161c565b806113ed81613165565b9150506113c7565b50565b6000610a0a82612108565b6015805461141090613036565b80601f016020809104026020016040519081016040528092919081815260200182805461143c90613036565b80156114895780601f1061145e57610100808354040283529160200191611489565b820191906000526020600020905b81548152906001019060200180831161146c57829003601f168201915b505050505081565b60006001600160a01b0382166114ba576040516323d3ad8160e21b815260040160405180910390fd5b506001600160a01b03166000908152600660205260409020546001600160401b031690565b6114e7612256565b6114f160006122b0565b565b6114fb612256565b601255565b611508612256565b601455565b6060600080600061151d85611491565b90506000816001600160401b0381111561153957611539612cf2565b604051908082528060200260200182016040528015611562578160200160208202803683370190505b50905061158f60408051608081018252600080825260208201819052918101829052606081019190915290565b60005b838614611610576115a281612300565b91508160400151156115b357611608565b81516001600160a01b0316156115c857815194505b876001600160a01b0316856001600160a01b0316141561160857808387806001019850815181106115fb576115fb61314f565b6020026020010181815250505b600101611592565b50909695505050505050565b6000600d82815481106116315761163161314f565b6000918252602090912001546001600160a01b031692915050565b606060048054610a1f90613036565b606081831061167d57604051631960ccad60e11b815260040160405180910390fd5b60008061168960015490565b905080841115611697578093505b60006116a287611491565b9050848610156116c157858503818110156116bb578091505b506116c5565b5060005b6000816001600160401b038111156116df576116df612cf2565b604051908082528060200260200182016040528015611708578160200160208202803683370190505b5090508161171b5793506117d192505050565b600061172688611921565b905060008160400151611737575080515b885b8881141580156117495750848714155b156117c55761175781612300565b9250826040015115611768576117bd565b82516001600160a01b03161561177d57825191505b8a6001600160a01b0316826001600160a01b031614156117bd57808488806001019950815181106117b0576117b061314f565b6020026020010181815250505b600101611739565b50505092835250909150505b9392505050565b6001600160a01b0382163314156118025760405163b06307db60e01b815260040160405180910390fd5b3360008181526008602090815260408083206001600160a01b03871680855290835292819020805460ff191686151590811790915590519081529192917f17307eab39ab6107e8899845ad3d59bd9653f200f220920489ca2b5937696c31910160405180910390a35050565b60008061187a600a5490565b6118849047613118565b90506117d183826118aa866001600160a01b03166000908152600c602052604090205490565b61233c565b6118ba848484610c7c565b6001600160a01b0383163b156118f3576118d68484848461237a565b6118f3576040516368d2bf6b60e11b815260040160405180910390fd5b50505050565b611901612256565b6018805460ff1916911515919091179055565b61191c612256565b601155565b60408051608080820183526000808352602080840182905283850182905260608085018390528551938401865282845290830182905293820181905292810183905290915060015483106119755792915050565b61197e83612300565b90508060400151156119905792915050565b6117d183612462565b6001600160a01b0382166000908152600e602052604081205481906040516370a0823160e01b81523060048201526001600160a01b038616906370a0823190602401602060405180830381865afa1580156119f8573d6000803e3d6000fd5b505050506040513d601f19601f82011682018060405250810190611a1c9190613185565b611a269190613118565b6001600160a01b038086166000908152600f6020908152604080832093881683529290522054909150611a5c908490839061233c565b949350505050565b6060611a6f82611fc7565b611abb5760405162461bcd60e51b815260206004820181905260248201527f55524920717565727920666f72206e6f6e6578697374616e7420746f6b656e2e6044820152606401610309565b6015611ac683612497565b604051602001611ad79291906131ba565b6040516020818303038152906040529050919050565b611af5612256565b600260105460ff166004811115611b0e57611b0e612fd7565b11611b5b5760405162461bcd60e51b815260206004820152601d60248201527f4769667420697320616674657220746865207075626c69632073616c650000006044820152606401610309565b601e81611b6b6002546001540390565b611b759190613118565b1115611bb65760405162461bcd60e51b815260206004820152601060248201526f5265616368206d617820737570706c7960801b6044820152606401610309565b6112f5828261223c565b323314611c0f5760405162461bcd60e51b815260206004820152601e60248201527f5468652063616c6c657220697320616e6f7468657220636f6e747261637400006044820152606401610309565b60185460ff1615611c575760405162461bcd60e51b815260206004820152601260248201527110dbdb9d1c9858dd081a5cc81c185d5cd95960721b6044820152606401610309565b601354611c679062127500613118565b611c749062015180613118565b4211611cc25760405162461bcd60e51b815260206004820181905260248201527f5075626c69632073616c657320686173206e6f742073746172746564207965746044820152606401610309565b601354611cd290622e2480613118565b4210611d195760405162461bcd60e51b81526020600482015260166024820152750a0eac4d8d2c640e6c2d8cae640d2e640ccd2dcd2e6d60531b6044820152606401610309565b60125480611d565760405162461bcd60e51b815260206004820152600a6024820152690507269636520697320360b41b6044820152606401610309565b600260105460ff166004811115611d6f57611d6f612fd7565b14611dbc5760405162461bcd60e51b815260206004820152601c60248201527f5075626c69632073616c65206973206e6f7420616374697661746564000000006044820152606401610309565b33600090815260176020526040902054600390611dda908490613118565b1115611e3e5760405162461bcd60e51b815260206004820152602d60248201527f596f752063616e206f6e6c79206765742033204e465473206f6e20746865207760448201526c686974656c6973742073616c6560981b6064820152608401610309565b611e4a6003601e613275565b82611e586002546001540390565b611e629190613118565b1115611ea65760405162461bcd60e51b815260206004820152601360248201527213585e081cdd5c1c1b1e48195e18d959591959606a1b6044820152606401610309565b611eb08282613130565b341015611ef35760405162461bcd60e51b81526020600482015260116024820152704e6f7420656e6f756768742066756e647360781b6044820152606401610309565b3360009081526017602052604081208054849290611f12908490613118565b90915550610e289050838361223c565b611f2a612256565b6001600160a01b038116611f8f5760405162461bcd60e51b815260206004820152602660248201527f4f776e61626c653a206e6577206f776e657220697320746865207a65726f206160448201526564647265737360d01b6064820152608401610309565b6113f5816122b0565b611fa0612256565b6010805482919060ff19166001836004811115611fbf57611fbf612fd7565b021790555050565b600060015482108015610a0a575050600090815260056020526040902054600160e01b161590565b8047101561203f5760405162461bcd60e51b815260206004820152601d60248201527f416464726573733a20696e73756666696369656e742062616c616e63650000006044820152606401610309565b6000826001600160a01b03168260405160006040518083038185875af1925050503d806000811461208c576040519150601f19603f3d011682016040523d82523d6000602084013e612091565b606091505b5050905080610e285760405162461bcd60e51b815260206004820152603a60248201527f416464726573733a20756e61626c6520746f2073656e642076616c75652c207260448201527f6563697069656e74206d617920686176652072657665727465640000000000006064820152608401610309565b60008160015481101561215057600081815260056020526040902054600160e01b811661214e575b806117d1575060001901600081815260056020526040902054612130565b505b604051636f96cda160e11b815260040160405180910390fd5b604080516001600160a01b038416602482015260448082018490528251808303909101815260649091019091526020810180516001600160e01b031663a9059cbb60e01b179052610e28908490612594565b6000611a5c612203856040516bffffffffffffffffffffffff19606083901b166020820152600090603401604051602081830303815290604052805190602001209050919050565b84848080602002602001604051908101604052809392919081815260200183836020028082843760009201919091525061266692505050565b6112f5828260405180602001604052806000815250612675565b6000546001600160a01b031633146114f15760405162461bcd60e51b815260206004820181905260248201527f4f776e61626c653a2063616c6c6572206973206e6f7420746865206f776e65726044820152606401610309565b600080546001600160a01b038381166001600160a01b0319831681178455604051919092169283917f8be0079c531659141344cd1fd0a4f28419497f9722a3daafe3b4186f6b6457e09190a35050565b604080516080810182526000808252602082018190529181018290526060810191909152600082815260056020526040902054610a0a906126db565b6009546001600160a01b0384166000908152600b6020526040812054909183916123669086613130565b61237091906132a2565b611a5c9190613275565b604051630a85bd0160e11b81526000906001600160a01b0385169063150b7a02906123af9033908990889088906004016132b6565b6020604051808303816000875af19250505080156123ea575060408051601f3d908101601f191682019092526123e7918101906132f3565b60015b612445573d808015612418576040519150601f19603f3d011682016040523d82523d6000602084013e61241d565b606091505b50805161243d576040516368d2bf6b60e11b815260040160405180910390fd5b805181602001fd5b6001600160e01b031916630a85bd0160e11b149050949350505050565b604080516080810182526000808252602082018190529181018290526060810191909152610a0a61249283612108565b6126db565b6060816124bb5750506040805180820190915260018152600360fc1b602082015290565b8160005b81156124e557806124cf81613310565b91506124de9050600a836132a2565b91506124bf565b6000816001600160401b038111156124ff576124ff612cf2565b6040519080825280601f01601f191660200182016040528015612529576020820181803683370190505b5090505b8415611a5c5761253e600183613275565b915061254b600a8661332b565b612556906030613118565b60f81b81838151811061256b5761256b61314f565b60200101906001600160f81b031916908160001a90535061258d600a866132a2565b945061252d565b60006125e9826040518060400160405280602081526020017f5361666545524332303a206c6f772d6c6576656c2063616c6c206661696c6564815250856001600160a01b03166127229092919063ffffffff16565b805190915015610e285780806020019051810190612607919061333f565b610e285760405162461bcd60e51b815260206004820152602a60248201527f5361666545524332303a204552433230206f7065726174696f6e20646964206e6044820152691bdd081cdd58d8d9595960b21b6064820152608401610309565b60006117d18260145485612731565b61267f8383612747565b6001600160a01b0383163b15610e28576001548281035b6126a9600086838060010194508661237a565b6126c6576040516368d2bf6b60e11b815260040160405180910390fd5b8181106126965781600154146112c657600080fd5b604080516080810182526001600160a01b038316815260a083901c6001600160401b03166020820152600160e01b831615159181019190915260e89190911c606082015290565b6060611a5c848460008561283e565b60008261273e858461296f565b14949350505050565b600154816127685760405163b562e8dd60e01b815260040160405180910390fd5b6001600160a01b03831660008181526006602090815260408083208054680100000000000000018802019055848352600590915281206001851460e11b4260a01b178317905582840190839083907fddf252ad1be2c89b69c2b068fc378daa952ba7f163c4a11628f55a4df523b3ef8180a4600183015b81811461281757808360007fddf252ad1be2c89b69c2b068fc378daa952ba7f163c4a11628f55a4df523b3ef600080a46001016127df565b508161283557604051622e076360e81b815260040160405180910390fd5b60015550505050565b60608247101561289f5760405162461bcd60e51b815260206004820152602660248201527f416464726573733a20696e73756666696369656e742062616c616e636520666f6044820152651c8818d85b1b60d21b6064820152608401610309565b6001600160a01b0385163b6128f65760405162461bcd60e51b815260206004820152601d60248201527f416464726573733a2063616c6c20746f206e6f6e2d636f6e74726163740000006044820152606401610309565b600080866001600160a01b03168587604051612912919061335c565b60006040518083038185875af1925050503d806000811461294f576040519150601f19603f3d011682016040523d82523d6000602084013e612954565b606091505b50915091506129648282866129bc565b979650505050505050565b600081815b84518110156129b4576129a0828683815181106129935761299361314f565b60200260200101516129f5565b9150806129ac81613310565b915050612974565b509392505050565b606083156129cb5750816117d1565b8251156129db5782518084602001fd5b8160405162461bcd60e51b81526004016103099190612b48565b6000818310612a115760008281526020849052604090206117d1565b60008381526020839052604090206117d1565b828054612a3090613036565b90600052602060002090601f016020900481019282612a525760008555612a98565b82601f10612a6b57805160ff1916838001178555612a98565b82800160010185558215612a98579182015b82811115612a98578251825591602001919060010190612a7d565b50612aa4929150612aa8565b5090565b5b80821115612aa45760008155600101612aa9565b6001600160e01b0319811681146113f557600080fd5b600060208284031215612ae557600080fd5b81356117d181612abd565b60005b83811015612b0b578181015183820152602001612af3565b838111156118f35750506000910152565b60008151808452612b34816020860160208601612af0565b601f01601f19169290920160200192915050565b6020815260006117d16020830184612b1c565b600060208284031215612b6d57600080fd5b5035919050565b6001600160a01b03811681146113f557600080fd5b60008060408385031215612b9c57600080fd5b8235612ba781612b74565b946020939093013593505050565b600060208284031215612bc757600080fd5b81356117d181612b74565b600080600060608486031215612be757600080fd5b8335612bf281612b74565b92506020840135612c0281612b74565b929592945050506040919091013590565b60008060408385031215612c2657600080fd5b8235612c3181612b74565b91506020830135612c4181612b74565b809150509250929050565b60008083601f840112612c5e57600080fd5b5081356001600160401b03811115612c7557600080fd5b6020830191508360208260051b8501011115612c9057600080fd5b9250929050565b60008060008060608587031215612cad57600080fd5b8435612cb881612b74565b93506020850135925060408501356001600160401b03811115612cda57600080fd5b612ce687828801612c4c565b95989497509550505050565b634e487b7160e01b600052604160045260246000fd5b60006001600160401b0380841115612d2257612d22612cf2565b604051601f8501601f19908116603f01168101908282118183101715612d4a57612d4a612cf2565b81604052809350858152868686011115612d6357600080fd5b858560208301376000602087830101525050509392505050565b600060208284031215612d8f57600080fd5b81356001600160401b03811115612da557600080fd5b8201601f81018413612db657600080fd5b611a5c84823560208401612d08565b60008060208385031215612dd857600080fd5b82356001600160401b03811115612dee57600080fd5b612dfa85828601612c4c565b90969095509350505050565b80516001600160a01b031682526020808201516001600160401b03169083015260408082015115159083015260609081015162ffffff16910152565b6020808252825182820181905260009190848201906040850190845b8181101561161057612e71838551612e06565b9284019260809290920191600101612e5e565b6020808252825182820181905260009190848201906040850190845b8181101561161057835183529284019291840191600101612ea0565b600080600060608486031215612ed157600080fd5b8335612edc81612b74565b95602085013595506040909401359392505050565b80151581146113f557600080fd5b60008060408385031215612f1257600080fd5b8235612f1d81612b74565b91506020830135612c4181612ef1565b60008060008060808587031215612f4357600080fd5b8435612f4e81612b74565b93506020850135612f5e81612b74565b92506040850135915060608501356001600160401b03811115612f8057600080fd5b8501601f81018713612f9157600080fd5b612fa087823560208401612d08565b91505092959194509250565b600060208284031215612fbe57600080fd5b81356117d181612ef1565b60808101610a0a8284612e06565b634e487b7160e01b600052602160045260246000fd5b602081016005831061300f57634e487b7160e01b600052602160045260246000fd5b91905290565b60006020828403121561302757600080fd5b8135600581106117d157600080fd5b600181811c9082168061304a57607f821691505b6020821081141561306b57634e487b7160e01b600052602260045260246000fd5b50919050565b60208082526026908201527f5061796d656e7453706c69747465723a206163636f756e7420686173206e6f2060408201526573686172657360d01b606082015260800190565b6020808252602b908201527f5061796d656e7453706c69747465723a206163636f756e74206973206e6f742060408201526a191d59481c185e5b595b9d60aa1b606082015260800190565b634e487b7160e01b600052601160045260246000fd5b6000821982111561312b5761312b613102565b500190565b600081600019048311821515161561314a5761314a613102565b500290565b634e487b7160e01b600052603260045260246000fd5b600060ff821660ff81141561317c5761317c613102565b60010192915050565b60006020828403121561319757600080fd5b5051919050565b600081516131b0818560208601612af0565b9290920192915050565b600080845481600182811c9150808316806131d657607f831692505b60208084108214156131f657634e487b7160e01b86526022600452602486fd5b81801561320a576001811461321b57613248565b60ff19861689528489019650613248565b60008b81526020902060005b868110156132405781548b820152908501908301613227565b505084890196505b50505050505061326c61325b828661319e565b64173539b7b760d91b815260050190565b95945050505050565b60008282101561328757613287613102565b500390565b634e487b7160e01b600052601260045260246000fd5b6000826132b1576132b161328c565b500490565b6001600160a01b03858116825284166020820152604081018390526080606082018190526000906132e990830184612b1c565b9695505050505050565b60006020828403121561330557600080fd5b81516117d181612abd565b600060001982141561332457613324613102565b5060010190565b60008261333a5761333a61328c565b500690565b60006020828403121561335157600080fd5b81516117d181612ef1565b6000825161336e818460208701612af0565b919091019291505056fea264697066735822122069836e935f66ce48b691a67f9746e6ddc564f05587ea5773b90c964154e8dab964736f6c634300080c0033",
  "linkReferences": {},
  "deployedLinkReferences": {}
}