{
  "_format": "hh-sol-artifact-1",
  "contractName": "SmileyERC721A",
  "sourceName": "contracts/SmileyERC721A.sol",
  "abi": [
    {
      "inputs": [
        {
          "internalType": "bytes32",
          "name": "_merkleRoot",
          "type": "bytes32"
        },
        {
          "internalType": "string",
          "name": "_baseURI",
          "type": "string"
        }
      ],
      "stateMutability": "nonpayable",
      "type": "constructor"
    },
    {
      "inputs": [],
      "name": "ApprovalCallerNotOwnerNorApproved",
      "type": "error"
    },
    {
      "inputs": [],
      "name": "ApprovalQueryForNonexistentToken",
      "type": "error"
    },
    {
      "inputs": [],
      "name": "ApproveToCaller",
      "type": "error"
    },
    {
      "inputs": [],
      "name": "BalanceQueryForZeroAddress",
      "type": "error"
    },
    {
      "inputs": [],
      "name": "InvalidQueryRange",
      "type": "error"
    },
    {
      "inputs": [],
      "name": "MintERC2309QuantityExceedsLimit",
      "type": "error"
    },
    {
      "inputs": [],
      "name": "MintToZeroAddress",
      "type": "error"
    },
    {
      "inputs": [],
      "name": "MintZeroQuantity",
      "type": "error"
    },
    {
      "inputs": [],
      "name": "OwnerQueryForNonexistentToken",
      "type": "error"
    },
    {
      "inputs": [],
      "name": "OwnershipNotInitializedForExtraData",
      "type": "error"
    },
    {
      "inputs": [],
      "name": "TransferCallerNotOwnerNorApproved",
      "type": "error"
    },
    {
      "inputs": [],
      "name": "TransferFromIncorrectOwner",
      "type": "error"
    },
    {
      "inputs": [],
      "name": "TransferToNonERC721ReceiverImplementer",
      "type": "error"
    },
    {
      "inputs": [],
      "name": "TransferToZeroAddress",
      "type": "error"
    },
    {
      "inputs": [],
      "name": "URIQueryForNonexistentToken",
      "type": "error"
    },
    {
      "anonymous": false,
      "inputs": [
        {
          "indexed": true,
          "internalType": "address",
          "name": "owner",
          "type": "address"
        },
        {
          "indexed": true,
          "internalType": "address",
          "name": "approved",
          "type": "address"
        },
        {
          "indexed": true,
          "internalType": "uint256",
          "name": "tokenId",
          "type": "uint256"
        }
      ],
      "name": "Approval",
      "type": "event"
    },
    {
      "anonymous": false,
      "inputs": [
        {
          "indexed": true,
          "internalType": "address",
          "name": "owner",
          "type": "address"
        },
        {
          "indexed": true,
          "internalType": "address",
          "name": "operator",
          "type": "address"
        },
        {
          "indexed": false,
          "internalType": "bool",
          "name": "approved",
          "type": "bool"
        }
      ],
      "name": "ApprovalForAll",
      "type": "event"
    },
    {
      "anonymous": false,
      "inputs": [
        {
          "indexed": true,
          "internalType": "uint256",
          "name": "fromTokenId",
          "type": "uint256"
        },
        {
          "indexed": false,
          "internalType": "uint256",
          "name": "toTokenId",
          "type": "uint256"
        },
        {
          "indexed": true,
          "internalType": "address",
          "name": "from",
          "type": "address"
        },
        {
          "indexed": true,
          "internalType": "address",
          "name": "to",
          "type": "address"
        }
      ],
      "name": "ConsecutiveTransfer",
      "type": "event"
    },
    {
      "anonymous": false,
      "inputs": [
        {
          "indexed": true,
          "internalType": "contract IERC20",
          "name": "token",
          "type": "address"
        },
        {
          "indexed": false,
          "internalType": "address",
          "name": "to",
          "type": "address"
        },
        {
          "indexed": false,
          "internalType": "uint256",
          "name": "amount",
          "type": "uint256"
        }
      ],
      "name": "ERC20PaymentReleased",
      "type": "event"
    },
    {
      "anonymous": false,
      "inputs": [
        {
          "indexed": true,
          "internalType": "address",
          "name": "previousOwner",
          "type": "address"
        },
        {
          "indexed": true,
          "internalType": "address",
          "name": "newOwner",
          "type": "address"
        }
      ],
      "name": "OwnershipTransferred",
      "type": "event"
    },
    {
      "anonymous": false,
      "inputs": [
        {
          "indexed": false,
          "internalType": "address",
          "name": "account",
          "type": "address"
        },
        {
          "indexed": false,
          "internalType": "uint256",
          "name": "shares",
          "type": "uint256"
        }
      ],
      "name": "PayeeAdded",
      "type": "event"
    },
    {
      "anonymous": false,
      "inputs": [
        {
          "indexed": false,
          "internalType": "address",
          "name": "from",
          "type": "address"
        },
        {
          "indexed": false,
          "internalType": "uint256",
          "name": "amount",
          "type": "uint256"
        }
      ],
      "name": "PaymentReceived",
      "type": "event"
    },
    {
      "anonymous": false,
      "inputs": [
        {
          "indexed": false,
          "internalType": "address",
          "name": "to",
          "type": "address"
        },
        {
          "indexed": false,
          "internalType": "uint256",
          "name": "amount",
          "type": "uint256"
        }
      ],
      "name": "PaymentReleased",
      "type": "event"
    },
    {
      "anonymous": false,
      "inputs": [
        {
          "indexed": true,
          "internalType": "address",
          "name": "from",
          "type": "address"
        },
        {
          "indexed": true,
          "internalType": "address",
          "name": "to",
          "type": "address"
        },
        {
          "indexed": true,
          "internalType": "uint256",
          "name": "tokenId",
          "type": "uint256"
        }
      ],
      "name": "Transfer",
      "type": "event"
    },
    {
      "inputs": [
        {
          "internalType": "address",
          "name": "to",
          "type": "address"
        },
        {
          "internalType": "uint256",
          "name": "tokenId",
          "type": "uint256"
        }
      ],
      "name": "approve",
      "outputs": [],
      "stateMutability": "nonpayable",
      "type": "function"
    },
    {
      "inputs": [
        {
          "internalType": "address",
          "name": "owner",
          "type": "address"
        }
      ],
      "name": "balanceOf",
      "outputs": [
        {
          "internalType": "uint256",
          "name": "",
          "type": "uint256"
        }
      ],
      "stateMutability": "view",
      "type": "function"
    },
    {
      "inputs": [],
      "name": "baseURI",
      "outputs": [
        {
          "internalType": "string",
          "name": "",
          "type": "string"
        }
      ],
      "stateMutability": "view",
      "type": "function"
    },
    {
      "inputs": [
        {
          "internalType": "uint256",
          "name": "tokenId",
          "type": "uint256"
        }
      ],
      "name": "explicitOwnershipOf",
      "outputs": [
        {
          "components": [
            {
              "internalType": "address",
              "name": "addr",
              "type": "address"
            },
            {
              "internalType": "uint64",
              "name": "startTimestamp",
              "type": "uint64"
            },
            {
              "internalType": "bool",
              "name": "burned",
              "type": "bool"
            },
            {
              "internalType": "uint24",
              "name": "extraData",
              "type": "uint24"
            }
          ],
          "internalType": "struct IERC721A.TokenOwnership",
          "name": "",
          "type": "tuple"
        }
      ],
      "stateMutability": "view",
      "type": "function"
    },
    {
      "inputs": [
        {
          "internalType": "uint256[]",
          "name": "tokenIds",
          "type": "uint256[]"
        }
      ],
      "name": "explicitOwnershipsOf",
      "outputs": [
        {
          "components": [
            {
              "internalType": "address",
              "name": "addr",
              "type": "address"
            },
            {
              "internalType": "uint64",
              "name": "startTimestamp",
              "type": "uint64"
            },
            {
              "internalType": "bool",
              "name": "burned",
              "type": "bool"
            },
            {
              "internalType": "uint24",
              "name": "extraData",
              "type": "uint24"
            }
          ],
          "internalType": "struct IERC721A.TokenOwnership[]",
          "name": "",
          "type": "tuple[]"
        }
      ],
      "stateMutability": "view",
      "type": "function"
    },
    {
      "inputs": [
        {
          "internalType": "uint256",
          "name": "tokenId",
          "type": "uint256"
        }
      ],
      "name": "getApproved",
      "outputs": [
        {
          "internalType": "address",
          "name": "",
          "type": "address"
        }
      ],
      "stateMutability": "view",
      "type": "function"
    },
    {
      "inputs": [
        {
          "internalType": "address",
          "name": "_to",
          "type": "address"
        },
        {
          "internalType": "uint256",
          "name": "_quantity",
          "type": "uint256"
        }
      ],
      "name": "gift",
      "outputs": [],
      "stateMutability": "nonpayable",
      "type": "function"
    },
    {
      "inputs": [
        {
          "internalType": "address",
          "name": "owner",
          "type": "address"
        },
        {
          "internalType": "address",
          "name": "operator",
          "type": "address"
        }
      ],
      "name": "isApprovedForAll",
      "outputs": [
        {
          "internalType": "bool",
          "name": "",
          "type": "bool"
        }
      ],
      "stateMutability": "view",
      "type": "function"
    },
    {
      "inputs": [],
      "name": "isPaused",
      "outputs": [
        {
          "internalType": "bool",
          "name": "",
          "type": "bool"
        }
      ],
      "stateMutability": "view",
      "type": "function"
    },
    {
      "inputs": [],
      "name": "merkleRoot",
      "outputs": [
        {
          "internalType": "bytes32",
          "name": "",
          "type": "bytes32"
        }
      ],
      "stateMutability": "view",
      "type": "function"
    },
    {
      "inputs": [],
      "name": "name",
      "outputs": [
        {
          "internalType": "string",
          "name": "",
          "type": "string"
        }
      ],
      "stateMutability": "view",
      "type": "function"
    },
    {
      "inputs": [],
      "name": "owner",
      "outputs": [
        {
          "internalType": "address",
          "name": "",
          "type": "address"
        }
      ],
      "stateMutability": "view",
      "type": "function"
    },
    {
      "inputs": [
        {
          "internalType": "uint256",
          "name": "tokenId",
          "type": "uint256"
        }
      ],
      "name": "ownerOf",
      "outputs": [
        {
          "internalType": "address",
          "name": "",
          "type": "address"
        }
      ],
      "stateMutability": "view",
      "type": "function"
    },
    {
      "inputs": [
        {
          "internalType": "uint256",
          "name": "index",
          "type": "uint256"
        }
      ],
      "name": "payee",
      "outputs": [
        {
          "internalType": "address",
          "name": "",
          "type": "address"
        }
      ],
      "stateMutability": "view",
      "type": "function"
    },
    {
      "inputs": [
        {
          "internalType": "address",
          "name": "_account",
          "type": "address"
        },
        {
          "internalType": "uint256",
          "name": "_quantity",
          "type": "uint256"
        }
      ],
      "name": "publicMint",
      "outputs": [],
      "stateMutability": "payable",
      "type": "function"
    },
    {
      "inputs": [],
      "name": "publicSalePrice",
      "outputs": [
        {
          "internalType": "uint256",
          "name": "",
          "type": "uint256"
        }
      ],
      "stateMutability": "view",
      "type": "function"
    },
    {
      "inputs": [
        {
          "internalType": "address",
          "name": "account",
          "type": "address"
        }
      ],
      "name": "releasable",
      "outputs": [
        {
          "internalType": "uint256",
          "name": "",
          "type": "uint256"
        }
      ],
      "stateMutability": "view",
      "type": "function"
    },
    {
      "inputs": [
        {
          "internalType": "contract IERC20",
          "name": "token",
          "type": "address"
        },
        {
          "internalType": "address",
          "name": "account",
          "type": "address"
        }
      ],
      "name": "releasable",
      "outputs": [
        {
          "internalType": "uint256",
          "name": "",
          "type": "uint256"
        }
      ],
      "stateMutability": "view",
      "type": "function"
    },
    {
      "inputs": [
        {
          "internalType": "address payable",
          "name": "account",
          "type": "address"
        }
      ],
      "name": "release",
      "outputs": [],
      "stateMutability": "nonpayable",
      "type": "function"
    },
    {
      "inputs": [
        {
          "internalType": "contract IERC20",
          "name": "token",
          "type": "address"
        },
        {
          "internalType": "address",
          "name": "account",
          "type": "address"
        }
      ],
      "name": "release",
      "outputs": [],
      "stateMutability": "nonpayable",
      "type": "function"
    },
    {
      "inputs": [],
      "name": "releaseAll",
      "outputs": [],
      "stateMutability": "nonpayable",
      "type": "function"
    },
    {
      "inputs": [
        {
          "internalType": "contract IERC20",
          "name": "token",
          "type": "address"
        },
        {
          "internalType": "address",
          "name": "account",
          "type": "address"
        }
      ],
      "name": "released",
      "outputs": [
        {
          "internalType": "uint256",
          "name": "",
          "type": "uint256"
        }
      ],
      "stateMutability": "view",
      "type": "function"
    },
    {
      "inputs": [
        {
          "internalType": "address",
          "name": "account",
          "type": "address"
        }
      ],
      "name": "released",
      "outputs": [
        {
          "internalType": "uint256",
          "name": "",
          "type": "uint256"
        }
      ],
      "stateMutability": "view",
      "type": "function"
    },
    {
      "inputs": [],
      "name": "renounceOwnership",
      "outputs": [],
      "stateMutability": "nonpayable",
      "type": "function"
    },
    {
      "inputs": [
        {
          "internalType": "address",
          "name": "from",
          "type": "address"
        },
        {
          "internalType": "address",
          "name": "to",
          "type": "address"
        },
        {
          "internalType": "uint256",
          "name": "tokenId",
          "type": "uint256"
        }
      ],
      "name": "safeTransferFrom",
      "outputs": [],
      "stateMutability": "nonpayable",
      "type": "function"
    },
    {
      "inputs": [
        {
          "internalType": "address",
          "name": "from",
          "type": "address"
        },
        {
          "internalType": "address",
          "name": "to",
          "type": "address"
        },
        {
          "internalType": "uint256",
          "name": "tokenId",
          "type": "uint256"
        },
        {
          "internalType": "bytes",
          "name": "_data",
          "type": "bytes"
        }
      ],
      "name": "safeTransferFrom",
      "outputs": [],
      "stateMutability": "nonpayable",
      "type": "function"
    },
    {
      "inputs": [],
      "name": "saleStartTime",
      "outputs": [
        {
          "internalType": "uint256",
          "name": "",
          "type": "uint256"
        }
      ],
      "stateMutability": "view",
      "type": "function"
    },
    {
      "inputs": [],
      "name": "sellingStep",
      "outputs": [
        {
          "internalType": "enum SmileyERC721A.Step",
          "name": "",
          "type": "uint8"
        }
      ],
      "stateMutability": "view",
      "type": "function"
    },
    {
      "inputs": [
        {
          "internalType": "address",
          "name": "operator",
          "type": "address"
        },
        {
          "internalType": "bool",
          "name": "approved",
          "type": "bool"
        }
      ],
      "name": "setApprovalForAll",
      "outputs": [],
      "stateMutability": "nonpayable",
      "type": "function"
    },
    {
      "inputs": [
        {
          "internalType": "string",
          "name": "_baseURI",
          "type": "string"
        }
      ],
      "name": "setBaseURI",
      "outputs": [],
      "stateMutability": "nonpayable",
      "type": "function"
    },
    {
      "inputs": [
        {
          "internalType": "bytes32",
          "name": "_merkleRoot",
          "type": "bytes32"
        }
      ],
      "name": "setMerkleRoot",
      "outputs": [],
      "stateMutability": "nonpayable",
      "type": "function"
    },
    {
      "inputs": [
        {
          "internalType": "bool",
          "name": "_isPaused",
          "type": "bool"
        }
      ],
      "name": "setPause",
      "outputs": [],
      "stateMutability": "nonpayable",
      "type": "function"
    },
    {
      "inputs": [
        {
          "internalType": "uint256",
          "name": "_publicSalePrice",
          "type": "uint256"
        }
      ],
      "name": "setPublicSalePrice",
      "outputs": [],
      "stateMutability": "nonpayable",
      "type": "function"
    },
    {
      "inputs": [
        {
          "internalType": "uint256",
          "name": "_saleStartTime",
          "type": "uint256"
        }
      ],
      "name": "setSaleStartTime",
      "outputs": [],
      "stateMutability": "nonpayable",
      "type": "function"
    },
    {
      "inputs": [
        {
          "internalType": "enum SmileyERC721A.Step",
          "name": "_step",
          "type": "uint8"
        }
      ],
      "name": "setStep",
      "outputs": [],
      "stateMutability": "nonpayable",
      "type": "function"
    },
    {
      "inputs": [
        {
          "internalType": "uint256",
          "name": "_wlSalePrice",
          "type": "uint256"
        }
      ],
      "name": "setWlSalePrice",
      "outputs": [],
      "stateMutability": "nonpayable",
      "type": "function"
    },
    {
      "inputs": [
        {
          "internalType": "address",
          "name": "account",
          "type": "address"
        }
      ],
      "name": "shares",
      "outputs": [
        {
          "internalType": "uint256",
          "name": "",
          "type": "uint256"
        }
      ],
      "stateMutability": "view",
      "type": "function"
    },
    {
      "inputs": [
        {
          "internalType": "bytes4",
          "name": "interfaceId",
          "type": "bytes4"
        }
      ],
      "name": "supportsInterface",
      "outputs": [
        {
          "internalType": "bool",
          "name": "",
          "type": "bool"
        }
      ],
      "stateMutability": "view",
      "type": "function"
    },
    {
      "inputs": [],
      "name": "symbol",
      "outputs": [
        {
          "internalType": "string",
          "name": "",
          "type": "string"
        }
      ],
      "stateMutability": "view",
      "type": "function"
    },
    {
      "inputs": [
        {
          "internalType": "uint256",
          "name": "_tokenId",
          "type": "uint256"
        }
      ],
      "name": "tokenURI",
      "outputs": [
        {
          "internalType": "string",
          "name": "",
          "type": "string"
        }
      ],
      "stateMutability": "view",
      "type": "function"
    },
    {
      "inputs": [
        {
          "internalType": "address",
          "name": "owner",
          "type": "address"
        }
      ],
      "name": "tokensOfOwner",
      "outputs": [
        {
          "internalType": "uint256[]",
          "name": "",
          "type": "uint256[]"
        }
      ],
      "stateMutability": "view",
      "type": "function"
    },
    {
      "inputs": [
        {
          "internalType": "address",
          "name": "owner",
          "type": "address"
        },
        {
          "internalType": "uint256",
          "name": "start",
          "type": "uint256"
        },
        {
          "internalType": "uint256",
          "name": "stop",
          "type": "uint256"
        }
      ],
      "name": "tokensOfOwnerIn",
      "outputs": [
        {
          "internalType": "uint256[]",
          "name": "",
          "type": "uint256[]"
        }
      ],
      "stateMutability": "view",
      "type": "function"
    },
    {
      "inputs": [
        {
          "internalType": "contract IERC20",
          "name": "token",
          "type": "address"
        }
      ],
      "name": "totalReleased",
      "outputs": [
        {
          "internalType": "uint256",
          "name": "",
          "type": "uint256"
        }
      ],
      "stateMutability": "view",
      "type": "function"
    },
    {
      "inputs": [],
      "name": "totalReleased",
      "outputs": [
        {
          "internalType": "uint256",
          "name": "",
          "type": "uint256"
        }
      ],
      "stateMutability": "view",
      "type": "function"
    },
    {
      "inputs": [],
      "name": "totalShares",
      "outputs": [
        {
          "internalType": "uint256",
          "name": "",
          "type": "uint256"
        }
      ],
      "stateMutability": "view",
      "type": "function"
    },
    {
      "inputs": [],
      "name": "totalSupply",
      "outputs": [
        {
          "internalType": "uint256",
          "name": "",
          "type": "uint256"
        }
      ],
      "stateMutability": "view",
      "type": "function"
    },
    {
      "inputs": [
        {
          "internalType": "address",
          "name": "from",
          "type": "address"
        },
        {
          "internalType": "address",
          "name": "to",
          "type": "address"
        },
        {
          "internalType": "uint256",
          "name": "tokenId",
          "type": "uint256"
        }
      ],
      "name": "transferFrom",
      "outputs": [],
      "stateMutability": "nonpayable",
      "type": "function"
    },
    {
      "inputs": [
        {
          "internalType": "address",
          "name": "newOwner",
          "type": "address"
        }
      ],
      "name": "transferOwnership",
      "outputs": [],
      "stateMutability": "nonpayable",
      "type": "function"
    },
    {
      "inputs": [
        {
          "internalType": "address",
          "name": "_account",
          "type": "address"
        },
        {
          "internalType": "uint256",
          "name": "_quantity",
          "type": "uint256"
        },
        {
          "internalType": "bytes32[]",
          "name": "_proof",
          "type": "bytes32[]"
        }
      ],
      "name": "whitelistMint",
      "outputs": [],
      "stateMutability": "payable",
      "type": "function"
    },
    {
      "inputs": [],
      "name": "wlSalePrice",
      "outputs": [
        {
          "internalType": "uint256",
          "name": "",
          "type": "uint256"
        }
      ],
      "stateMutability": "view",
      "type": "function"
    },
    {
      "stateMutability": "payable",
      "type": "receive"
    }
  ],
  "bytecode": "0x66038d7ea4c68000601155660aa87bee53800060125563630fd9e160135560c060405273f39fd6e51aad88f6f4ce6ab8827279cfffb9226660809081527370997970c51812dc3a010c7d01b50e0d17dc79c860a0526200006490601a90600262000594565b50604080518082019091526102bc815261012c60208201526200008c90601b906002620005fe565b503480156200009a57600080fd5b5060405162003c2838038062003c28833981016040819052620000bd91620006ec565b601a8054806020026020016040519081016040528092919081815260200182805480156200011557602002820191906000526020600020905b81546001600160a01b03168152600190910190602001808311620000f6575b5050505050601b8054806020026020016040519081016040528092919081815260200182805480156200016857602002820191906000526020600020905b81548152602001906001019080831162000153575b505050505060405180604001604052806006815260200165536d696c657960d01b81525060405180604001604052806003815260200162534d5960e81b815250620001c2620001bc6200035260201b60201c565b62000356565b8151620001d790600390602085019062000642565b508051620001ed90600490602084019062000642565b50600060015550508051825114620002675760405162461bcd60e51b815260206004820152603260248201527f5061796d656e7453706c69747465723a2070617965657320616e6420736861726044820152710cae640d8cadccee8d040dad2e6dac2e8c6d60731b60648201526084015b60405180910390fd5b6000825111620002ba5760405162461bcd60e51b815260206004820152601a60248201527f5061796d656e7453706c69747465723a206e6f2070617965657300000000000060448201526064016200025e565b60005b8251811015620003265762000311838281518110620002e057620002e0620007d6565b6020026020010151838381518110620002fd57620002fd620007d6565b6020026020010151620003a660201b60201c565b806200031d8162000802565b915050620002bd565b505050601482905580516200034390601590602084019062000642565b5050601a546019555062000878565b3390565b600080546001600160a01b038381166001600160a01b0319831681178455604051919092169283917f8be0079c531659141344cd1fd0a4f28419497f9722a3daafe3b4186f6b6457e09190a35050565b6001600160a01b038216620004135760405162461bcd60e51b815260206004820152602c60248201527f5061796d656e7453706c69747465723a206163636f756e74206973207468652060448201526b7a65726f206164647265737360a01b60648201526084016200025e565b60008111620004655760405162461bcd60e51b815260206004820152601d60248201527f5061796d656e7453706c69747465723a2073686172657320617265203000000060448201526064016200025e565b6001600160a01b0382166000908152600b602052604090205415620004e15760405162461bcd60e51b815260206004820152602b60248201527f5061796d656e7453706c69747465723a206163636f756e7420616c726561647960448201526a206861732073686172657360a81b60648201526084016200025e565b600d8054600181019091557fd7b6990105719101dabeb77144f2a3385c8033acd3af97e9423a695e81ad1eb50180546001600160a01b0319166001600160a01b0384169081179091556000908152600b602052604090208190556009546200054b90829062000820565b600955604080516001600160a01b0384168152602081018390527f40c340f65e17194d14ddddb073d3c9f888e3cb52b5aae0c6c7706b4fbc905fac910160405180910390a15050565b828054828255906000526020600020908101928215620005ec579160200282015b82811115620005ec57825182546001600160a01b0319166001600160a01b03909116178255602090920191600190910190620005b5565b50620005fa929150620006bf565b5090565b828054828255906000526020600020908101928215620005ec579160200282015b82811115620005ec578251829061ffff169055916020019190600101906200061f565b82805462000650906200083b565b90600052602060002090601f016020900481019282620006745760008555620005ec565b82601f106200068f57805160ff1916838001178555620005ec565b82800160010185558215620005ec579182015b82811115620005ec578251825591602001919060010190620006a2565b5b80821115620005fa5760008155600101620006c0565b634e487b7160e01b600052604160045260246000fd5b600080604083850312156200070057600080fd5b8251602080850151919350906001600160401b03808211156200072257600080fd5b818601915086601f8301126200073757600080fd5b8151818111156200074c576200074c620006d6565b604051601f8201601f19908116603f01168101908382118183101715620007775762000777620006d6565b8160405282815289868487010111156200079057600080fd5b600093505b82841015620007b4578484018601518185018701529285019262000795565b82841115620007c65760008684830101525b8096505050505050509250929050565b634e487b7160e01b600052603260045260246000fd5b634e487b7160e01b600052601160045260246000fd5b6000600019821415620008195762000819620007ec565b5060010190565b60008219821115620008365762000836620007ec565b500190565b600181811c908216806200085057607f821691505b602082108114156200087257634e487b7160e01b600052602260045260246000fd5b50919050565b6133a080620008886000396000f3fe6080604052600436106102cd5760003560e01c80638462151c11610175578063bf332d61116100dc578063ce6df2b911610095578063e33b7de31161006f578063e33b7de314610920578063e985e9c514610935578063f2fde38b1461097e578063f8b89dfb1461099e57600080fd5b8063ce6df2b9146108a1578063ce7c2ac2146108b4578063d79779b2146108ea57600080fd5b8063bf332d61146107cd578063c23dc68f146107ed578063c45ac0501461081a578063c87b56dd1461083a578063cbccefb21461085a578063cbce4c971461088157600080fd5b80639b6860c81161012e5780639b6860c81461071d578063a22cb46514610733578063a3f8eace14610753578063b187bd2614610773578063b88d4fde1461078d578063bedb86fb146107ad57600080fd5b80638462151c146106475780638b83209b146106745780638da5cb5b1461069457806395d89b41146106b25780639852595c146106c757806399a2557a146106fd57600080fd5b806348b75044116102345780636352211e116101ed578063715018a6116101c7578063715018a6146105dc578063734c66bd146105f1578063791a2519146106075780637cb647591461062757600080fd5b80636352211e146105875780636c0360eb146105a757806370a08231146105bc57600080fd5b806348b75044146104d25780634b11faaf146104f2578063525f8a5c1461050557806355f804b3146105255780635bbb2177146105455780635be7fde81461057257600080fd5b80631cbaee2d116102865780631cbaee2d1461040b57806323b872dd146104215780632eb4a7ab146104415780633a98ef3914610457578063406072a91461046c57806342842e0e146104b257600080fd5b806301ffc9a71461031757806306fdde031461034c578063081812fc1461036e578063095ea7b3146103a657806318160ddd146103c857806319165587146103eb57600080fd5b366103125760405162461bcd60e51b815260206004820152601060248201526f13db9b1e481a59881e5bdd481b5a5b9d60821b60448201526064015b60405180910390fd5b600080fd5b34801561032357600080fd5b50610337610332366004612ac5565b6109be565b60405190151581526020015b60405180910390f35b34801561035857600080fd5b50610361610a10565b6040516103439190612b3a565b34801561037a57600080fd5b5061038e610389366004612b4d565b610aa2565b6040516001600160a01b039091168152602001610343565b3480156103b257600080fd5b506103c66103c1366004612b7b565b610ae6565b005b3480156103d457600080fd5b50600254600154035b604051908152602001610343565b3480156103f757600080fd5b506103c6610406366004612ba7565b610b86565b34801561041757600080fd5b506103dd60135481565b34801561042d57600080fd5b506103c661043c366004612bc4565b610c7c565b34801561044d57600080fd5b506103dd60145481565b34801561046357600080fd5b506009546103dd565b34801561047857600080fd5b506103dd610487366004612c05565b6001600160a01b039182166000908152600f6020908152604080832093909416825291909152205490565b3480156104be57600080fd5b506103c66104cd366004612bc4565b610e0d565b3480156104de57600080fd5b506103c66104ed366004612c05565b610e2d565b6103c6610500366004612c89565b610f4d565b34801561051157600080fd5b506103c6610520366004612b4d565b6112cc565b34801561053157600080fd5b506103c6610540366004612d6f565b6112d9565b34801561055157600080fd5b50610565610560366004612db7565b6112f8565b6040516103439190612e34565b34801561057e57600080fd5b506103c66113c3565b34801561059357600080fd5b5061038e6105a2366004612b4d565b6113f7565b3480156105b357600080fd5b50610361611402565b3480156105c857600080fd5b506103dd6105d7366004612ba7565b611490565b3480156105e857600080fd5b506103c66114de565b3480156105fd57600080fd5b506103dd60115481565b34801561061357600080fd5b506103c6610622366004612b4d565b6114f2565b34801561063357600080fd5b506103c6610642366004612b4d565b6114ff565b34801561065357600080fd5b50610667610662366004612ba7565b61150c565b6040516103439190612e76565b34801561068057600080fd5b5061038e61068f366004612b4d565b61161b565b3480156106a057600080fd5b506000546001600160a01b031661038e565b3480156106be57600080fd5b5061036161164b565b3480156106d357600080fd5b506103dd6106e2366004612ba7565b6001600160a01b03166000908152600c602052604090205490565b34801561070957600080fd5b50610667610718366004612eae565b61165a565b34801561072957600080fd5b506103dd60125481565b34801561073f57600080fd5b506103c661074e366004612ef1565b6117d7565b34801561075f57600080fd5b506103dd61076e366004612ba7565b61186d565b34801561077f57600080fd5b506018546103379060ff1681565b34801561079957600080fd5b506103c66107a8366004612f1f565b6118ae565b3480156107b957600080fd5b506103c66107c8366004612f9e565b6118f8565b3480156107d957600080fd5b506103c66107e8366004612b4d565b611913565b3480156107f957600080fd5b5061080d610808366004612b4d565b611920565b6040516103439190612fbb565b34801561082657600080fd5b506103dd610835366004612c05565b611998565b34801561084657600080fd5b50610361610855366004612b4d565b611a63565b34801561086657600080fd5b506010546108749060ff1681565b6040516103439190612fdf565b34801561088d57600080fd5b506103c661089c366004612b7b565b611aec565b6103c66108af366004612b7b565b611bbf565b3480156108c057600080fd5b506103dd6108cf366004612ba7565b6001600160a01b03166000908152600b602052604090205490565b3480156108f657600080fd5b506103dd610905366004612ba7565b6001600160a01b03166000908152600e602052604090205490565b34801561092c57600080fd5b50600a546103dd565b34801561094157600080fd5b50610337610950366004612c05565b6001600160a01b03918216600090815260086020908152604080832093909416825291909152205460ff1690565b34801561098a57600080fd5b506103c6610999366004612ba7565b611f14565b3480156109aa57600080fd5b506103c66109b9366004613007565b611f8a565b60006301ffc9a760e01b6001600160e01b0319831614806109ef57506380ac58cd60e01b6001600160e01b03198316145b80610a0a5750635b5e139f60e01b6001600160e01b03198316145b92915050565b606060038054610a1f90613028565b80601f0160208091040260200160405190810160405280929190818152602001828054610a4b90613028565b8015610a985780601f10610a6d57610100808354040283529160200191610a98565b820191906000526020600020905b815481529060010190602001808311610a7b57829003601f168201915b5050505050905090565b6000610aad82611fb9565b610aca576040516333d1c03960e21b815260040160405180910390fd5b506000908152600760205260409020546001600160a01b031690565b6000610af1826113f7565b9050336001600160a01b03821614610b2a57610b0d8133610950565b610b2a576040516367d9dca160e11b815260040160405180910390fd5b60008281526007602052604080822080546001600160a01b0319166001600160a01b0387811691821790925591518593918516917f8c5be1e5ebec7d5bd14f71427d1e84f3dd0314c0f7b2291e5b200ac8c7c3b92591a4505050565b6001600160a01b0381166000908152600b6020526040902054610bbb5760405162461bcd60e51b815260040161030990613063565b6000610bc68261186d565b905080610be55760405162461bcd60e51b8152600401610309906130a9565b6001600160a01b0382166000908152600c602052604081208054839290610c0d90849061310a565b9250508190555080600a6000828254610c26919061310a565b90915550610c3690508282611fe1565b604080516001600160a01b0384168152602081018390527fdf20fd1e76bc69d672e4814fafb2c449bba3a5369d8359adf9e05e6fde87b056910160405180910390a15050565b6000610c87826120fa565b9050836001600160a01b0316816001600160a01b031614610cba5760405162a1148160e81b815260040160405180910390fd5b60008281526007602052604090208054338082146001600160a01b03881690911417610d0757610cea8633610950565b610d0757604051632ce44b5f60e11b815260040160405180910390fd5b6001600160a01b038516610d2e57604051633a954ecd60e21b815260040160405180910390fd5b8015610d3957600082555b6001600160a01b038681166000908152600660205260408082208054600019019055918716808252919020805460010190554260a01b17600160e11b17600085815260056020526040902055600160e11b8316610dc45760018401600081815260056020526040902054610dc2576001548114610dc25760008181526005602052604090208490555b505b83856001600160a01b0316876001600160a01b03167fddf252ad1be2c89b69c2b068fc378daa952ba7f163c4a11628f55a4df523b3ef60405160405180910390a4505050505050565b610e28838383604051806020016040528060008152506118ae565b505050565b6001600160a01b0381166000908152600b6020526040902054610e625760405162461bcd60e51b815260040161030990613063565b6000610e6e8383611998565b905080610e8d5760405162461bcd60e51b8152600401610309906130a9565b6001600160a01b038084166000908152600f6020908152604080832093861683529290529081208054839290610ec490849061310a565b90915550506001600160a01b0383166000908152600e602052604081208054839290610ef190849061310a565b90915550610f02905083838361215b565b604080516001600160a01b038481168252602082018490528516917f3be5b7a71e84ed12875d241991c70855ac5817d847039e17a9d895c1ceb0f18a910160405180910390a2505050565b323314610f9c5760405162461bcd60e51b815260206004820152601e60248201527f5468652063616c6c657220697320616e6f7468657220636f6e747261637400006044820152606401610309565b60185460ff1615610fe45760405162461bcd60e51b815260206004820152601260248201527110dbdb9d1c9858dd081a5cc81c185d5cd95960721b6044820152606401610309565b6013544210156110365760405162461bcd60e51b815260206004820152601860248201527f53616c6520686173206e6f7420737461727465642079657400000000000000006044820152606401610309565b6013546110459061a8c061310a565b42106110865760405162461bcd60e51b815260206004820152601060248201526f14d85b19481a5cc8199a5b9a5cda195960821b6044820152606401610309565b601154806110c35760405162461bcd60e51b815260206004820152600a6024820152690507269636520697320360b41b6044820152606401610309565b600160105460ff1660048111156110dc576110dc612fc9565b146111295760405162461bcd60e51b815260206004820152601f60248201527f57686974656c6973742073616c65206973206e6f7420616374697661746564006044820152606401610309565b6111343384846121ad565b6111725760405162461bcd60e51b815260206004820152600f60248201526e139bdd081dda1a5d195b1a5cdd1959608a1b6044820152606401610309565b3360009081526016602052604090205460019061119090869061310a565b11156111ea5760405162461bcd60e51b815260206004820152602360248201527f596f752063616e206f6e6c79206765742031204e4654206f6e2077686974656c6044820152621a5cdd60ea1b6064820152608401610309565b6005846111fa6002546001540390565b611204919061310a565b11156112485760405162461bcd60e51b815260206004820152601360248201527213585e081cdd5c1c1b1e48195e18d959591959606a1b6044820152606401610309565b6112528482613122565b3410156112965760405162461bcd60e51b81526020600482015260126024820152714e6f7420656e6f7567687420666f756e647360701b6044820152606401610309565b33600090815260166020526040812080548692906112b590849061310a565b909155506112c59050858561222e565b5050505050565b6112d4612248565b601355565b6112e1612248565b80516112f4906015906020840190612a16565b5050565b6060816000816001600160401b0381111561131557611315612ce4565b60405190808252806020026020018201604052801561136757816020015b6040805160808101825260008082526020808301829052928201819052606082015282526000199092019101816113335790505b50905060005b8281146113ba5761139586868381811061138957611389613141565b90506020020135611920565b8282815181106113a7576113a7613141565b602090810291909101015260010161136d565b50949350505050565b60005b6019548160ff1610156113f4576113e26104068260ff1661161b565b806113ec81613157565b9150506113c6565b50565b6000610a0a826120fa565b6015805461140f90613028565b80601f016020809104026020016040519081016040528092919081815260200182805461143b90613028565b80156114885780601f1061145d57610100808354040283529160200191611488565b820191906000526020600020905b81548152906001019060200180831161146b57829003601f168201915b505050505081565b60006001600160a01b0382166114b9576040516323d3ad8160e21b815260040160405180910390fd5b506001600160a01b03166000908152600660205260409020546001600160401b031690565b6114e6612248565b6114f060006122a2565b565b6114fa612248565b601255565b611507612248565b601455565b6060600080600061151c85611490565b90506000816001600160401b0381111561153857611538612ce4565b604051908082528060200260200182016040528015611561578160200160208202803683370190505b50905061158e60408051608081018252600080825260208201819052918101829052606081019190915290565b60005b83861461160f576115a1816122f2565b91508160400151156115b257611607565b81516001600160a01b0316156115c757815194505b876001600160a01b0316856001600160a01b0316141561160757808387806001019850815181106115fa576115fa613141565b6020026020010181815250505b600101611591565b50909695505050505050565b6000600d828154811061163057611630613141565b6000918252602090912001546001600160a01b031692915050565b606060048054610a1f90613028565b606081831061167c57604051631960ccad60e11b815260040160405180910390fd5b60008061168860015490565b905080841115611696578093505b60006116a187611490565b9050848610156116c057858503818110156116ba578091505b506116c4565b5060005b6000816001600160401b038111156116de576116de612ce4565b604051908082528060200260200182016040528015611707578160200160208202803683370190505b5090508161171a5793506117d092505050565b600061172588611920565b905060008160400151611736575080515b885b8881141580156117485750848714155b156117c457611756816122f2565b9250826040015115611767576117bc565b82516001600160a01b03161561177c57825191505b8a6001600160a01b0316826001600160a01b031614156117bc57808488806001019950815181106117af576117af613141565b6020026020010181815250505b600101611738565b50505092835250909150505b9392505050565b6001600160a01b0382163314156118015760405163b06307db60e01b815260040160405180910390fd5b3360008181526008602090815260408083206001600160a01b03871680855290835292819020805460ff191686151590811790915590519081529192917f17307eab39ab6107e8899845ad3d59bd9653f200f220920489ca2b5937696c31910160405180910390a35050565b600080611879600a5490565b611883904761310a565b90506117d083826118a9866001600160a01b03166000908152600c602052604090205490565b61232e565b6118b9848484610c7c565b6001600160a01b0383163b156118f2576118d58484848461236c565b6118f2576040516368d2bf6b60e11b815260040160405180910390fd5b50505050565b611900612248565b6018805460ff1916911515919091179055565b61191b612248565b601155565b60408051608080820183526000808352602080840182905283850182905260608085018390528551938401865282845290830182905293820181905292810183905290915060015483106119745792915050565b61197d836122f2565b905080604001511561198f5792915050565b6117d083612454565b6001600160a01b0382166000908152600e602052604081205481906040516370a0823160e01b81523060048201526001600160a01b038616906370a0823190602401602060405180830381865afa1580156119f7573d6000803e3d6000fd5b505050506040513d601f19601f82011682018060405250810190611a1b9190613177565b611a25919061310a565b6001600160a01b038086166000908152600f6020908152604080832093881683529290522054909150611a5b908490839061232e565b949350505050565b6060611a6e82611fb9565b611aba5760405162461bcd60e51b815260206004820181905260248201527f55524920717565727920666f72206e6f6e6578697374616e7420746f6b656e2e6044820152606401610309565b6015611ac583612489565b604051602001611ad69291906131ac565b6040516020818303038152906040529050919050565b611af4612248565b600260105460ff166004811115611b0d57611b0d612fc9565b11611b5a5760405162461bcd60e51b815260206004820152601d60248201527f4769667420697320616674657220746865207075626c69632073616c650000006044820152606401610309565b601e81611b6a6002546001540390565b611b74919061310a565b1115611bb55760405162461bcd60e51b815260206004820152601060248201526f5265616368206d617820737570706c7960801b6044820152606401610309565b6112f4828261222e565b323314611c0e5760405162461bcd60e51b815260206004820152601e60248201527f5468652063616c6c657220697320616e6f7468657220636f6e747261637400006044820152606401610309565b60185460ff1615611c565760405162461bcd60e51b815260206004820152601260248201527110dbdb9d1c9858dd081a5cc81c185d5cd95960721b6044820152606401610309565b601354611c66906201518061310a565b4211611cb45760405162461bcd60e51b815260206004820181905260248201527f5075626c69632073616c657320686173206e6f742073746172746564207965746044820152606401610309565b601354611cc4906202a30061310a565b4210611d0b5760405162461bcd60e51b81526020600482015260166024820152750a0eac4d8d2c640e6c2d8cae640d2e640ccd2dcd2e6d60531b6044820152606401610309565b60125480611d485760405162461bcd60e51b815260206004820152600a6024820152690507269636520697320360b41b6044820152606401610309565b600260105460ff166004811115611d6157611d61612fc9565b14611dae5760405162461bcd60e51b815260206004820152601c60248201527f5075626c69632073616c65206973206e6f7420616374697661746564000000006044820152606401610309565b33600090815260176020526040902054600390611dcc90849061310a565b1115611e305760405162461bcd60e51b815260206004820152602d60248201527f596f752063616e206f6e6c79206765742033204e465473206f6e20746865207760448201526c686974656c6973742073616c6560981b6064820152608401610309565b611e3c6003601e613267565b82611e4a6002546001540390565b611e54919061310a565b1115611e985760405162461bcd60e51b815260206004820152601360248201527213585e081cdd5c1c1b1e48195e18d959591959606a1b6044820152606401610309565b611ea28282613122565b341015611ee55760405162461bcd60e51b81526020600482015260116024820152704e6f7420656e6f756768742066756e647360781b6044820152606401610309565b3360009081526017602052604081208054849290611f0490849061310a565b90915550610e289050838361222e565b611f1c612248565b6001600160a01b038116611f815760405162461bcd60e51b815260206004820152602660248201527f4f776e61626c653a206e6577206f776e657220697320746865207a65726f206160448201526564647265737360d01b6064820152608401610309565b6113f4816122a2565b611f92612248565b6010805482919060ff19166001836004811115611fb157611fb1612fc9565b021790555050565b600060015482108015610a0a575050600090815260056020526040902054600160e01b161590565b804710156120315760405162461bcd60e51b815260206004820152601d60248201527f416464726573733a20696e73756666696369656e742062616c616e63650000006044820152606401610309565b6000826001600160a01b03168260405160006040518083038185875af1925050503d806000811461207e576040519150601f19603f3d011682016040523d82523d6000602084013e612083565b606091505b5050905080610e285760405162461bcd60e51b815260206004820152603a60248201527f416464726573733a20756e61626c6520746f2073656e642076616c75652c207260448201527f6563697069656e74206d617920686176652072657665727465640000000000006064820152608401610309565b60008160015481101561214257600081815260056020526040902054600160e01b8116612140575b806117d0575060001901600081815260056020526040902054612122565b505b604051636f96cda160e11b815260040160405180910390fd5b604080516001600160a01b038416602482015260448082018490528251808303909101815260649091019091526020810180516001600160e01b031663a9059cbb60e01b179052610e28908490612586565b6000611a5b6121f5856040516bffffffffffffffffffffffff19606083901b166020820152600090603401604051602081830303815290604052805190602001209050919050565b84848080602002602001604051908101604052809392919081815260200183836020028082843760009201919091525061265892505050565b6112f4828260405180602001604052806000815250612667565b6000546001600160a01b031633146114f05760405162461bcd60e51b815260206004820181905260248201527f4f776e61626c653a2063616c6c6572206973206e6f7420746865206f776e65726044820152606401610309565b600080546001600160a01b038381166001600160a01b0319831681178455604051919092169283917f8be0079c531659141344cd1fd0a4f28419497f9722a3daafe3b4186f6b6457e09190a35050565b604080516080810182526000808252602082018190529181018290526060810191909152600082815260056020526040902054610a0a906126cd565b6009546001600160a01b0384166000908152600b6020526040812054909183916123589086613122565b6123629190613294565b611a5b9190613267565b604051630a85bd0160e11b81526000906001600160a01b0385169063150b7a02906123a19033908990889088906004016132a8565b6020604051808303816000875af19250505080156123dc575060408051601f3d908101601f191682019092526123d9918101906132e5565b60015b612437573d80801561240a576040519150601f19603f3d011682016040523d82523d6000602084013e61240f565b606091505b50805161242f576040516368d2bf6b60e11b815260040160405180910390fd5b805181602001fd5b6001600160e01b031916630a85bd0160e11b149050949350505050565b604080516080810182526000808252602082018190529181018290526060810191909152610a0a612484836120fa565b6126cd565b6060816124ad5750506040805180820190915260018152600360fc1b602082015290565b8160005b81156124d757806124c181613302565b91506124d09050600a83613294565b91506124b1565b6000816001600160401b038111156124f1576124f1612ce4565b6040519080825280601f01601f19166020018201604052801561251b576020820181803683370190505b5090505b8415611a5b57612530600183613267565b915061253d600a8661331d565b61254890603061310a565b60f81b81838151811061255d5761255d613141565b60200101906001600160f81b031916908160001a90535061257f600a86613294565b945061251f565b60006125db826040518060400160405280602081526020017f5361666545524332303a206c6f772d6c6576656c2063616c6c206661696c6564815250856001600160a01b03166127149092919063ffffffff16565b805190915015610e2857808060200190518101906125f99190613331565b610e285760405162461bcd60e51b815260206004820152602a60248201527f5361666545524332303a204552433230206f7065726174696f6e20646964206e6044820152691bdd081cdd58d8d9595960b21b6064820152608401610309565b60006117d08260145485612723565b6126718383612739565b6001600160a01b0383163b15610e28576001548281035b61269b600086838060010194508661236c565b6126b8576040516368d2bf6b60e11b815260040160405180910390fd5b8181106126885781600154146112c557600080fd5b604080516080810182526001600160a01b038316815260a083901c6001600160401b03166020820152600160e01b831615159181019190915260e89190911c606082015290565b6060611a5b8484600085612830565b6000826127308584612961565b14949350505050565b6001548161275a5760405163b562e8dd60e01b815260040160405180910390fd5b6001600160a01b03831660008181526006602090815260408083208054680100000000000000018802019055848352600590915281206001851460e11b4260a01b178317905582840190839083907fddf252ad1be2c89b69c2b068fc378daa952ba7f163c4a11628f55a4df523b3ef8180a4600183015b81811461280957808360007fddf252ad1be2c89b69c2b068fc378daa952ba7f163c4a11628f55a4df523b3ef600080a46001016127d1565b508161282757604051622e076360e81b815260040160405180910390fd5b60015550505050565b6060824710156128915760405162461bcd60e51b815260206004820152602660248201527f416464726573733a20696e73756666696369656e742062616c616e636520666f6044820152651c8818d85b1b60d21b6064820152608401610309565b6001600160a01b0385163b6128e85760405162461bcd60e51b815260206004820152601d60248201527f416464726573733a2063616c6c20746f206e6f6e2d636f6e74726163740000006044820152606401610309565b600080866001600160a01b03168587604051612904919061334e565b60006040518083038185875af1925050503d8060008114612941576040519150601f19603f3d011682016040523d82523d6000602084013e612946565b606091505b50915091506129568282866129ae565b979650505050505050565b600081815b84518110156129a6576129928286838151811061298557612985613141565b60200260200101516129e7565b91508061299e81613302565b915050612966565b509392505050565b606083156129bd5750816117d0565b8251156129cd5782518084602001fd5b8160405162461bcd60e51b81526004016103099190612b3a565b6000818310612a035760008281526020849052604090206117d0565b60008381526020839052604090206117d0565b828054612a2290613028565b90600052602060002090601f016020900481019282612a445760008555612a8a565b82601f10612a5d57805160ff1916838001178555612a8a565b82800160010185558215612a8a579182015b82811115612a8a578251825591602001919060010190612a6f565b50612a96929150612a9a565b5090565b5b80821115612a965760008155600101612a9b565b6001600160e01b0319811681146113f457600080fd5b600060208284031215612ad757600080fd5b81356117d081612aaf565b60005b83811015612afd578181015183820152602001612ae5565b838111156118f25750506000910152565b60008151808452612b26816020860160208601612ae2565b601f01601f19169290920160200192915050565b6020815260006117d06020830184612b0e565b600060208284031215612b5f57600080fd5b5035919050565b6001600160a01b03811681146113f457600080fd5b60008060408385031215612b8e57600080fd5b8235612b9981612b66565b946020939093013593505050565b600060208284031215612bb957600080fd5b81356117d081612b66565b600080600060608486031215612bd957600080fd5b8335612be481612b66565b92506020840135612bf481612b66565b929592945050506040919091013590565b60008060408385031215612c1857600080fd5b8235612c2381612b66565b91506020830135612c3381612b66565b809150509250929050565b60008083601f840112612c5057600080fd5b5081356001600160401b03811115612c6757600080fd5b6020830191508360208260051b8501011115612c8257600080fd5b9250929050565b60008060008060608587031215612c9f57600080fd5b8435612caa81612b66565b93506020850135925060408501356001600160401b03811115612ccc57600080fd5b612cd887828801612c3e565b95989497509550505050565b634e487b7160e01b600052604160045260246000fd5b60006001600160401b0380841115612d1457612d14612ce4565b604051601f8501601f19908116603f01168101908282118183101715612d3c57612d3c612ce4565b81604052809350858152868686011115612d5557600080fd5b858560208301376000602087830101525050509392505050565b600060208284031215612d8157600080fd5b81356001600160401b03811115612d9757600080fd5b8201601f81018413612da857600080fd5b611a5b84823560208401612cfa565b60008060208385031215612dca57600080fd5b82356001600160401b03811115612de057600080fd5b612dec85828601612c3e565b90969095509350505050565b80516001600160a01b031682526020808201516001600160401b03169083015260408082015115159083015260609081015162ffffff16910152565b6020808252825182820181905260009190848201906040850190845b8181101561160f57612e63838551612df8565b9284019260809290920191600101612e50565b6020808252825182820181905260009190848201906040850190845b8181101561160f57835183529284019291840191600101612e92565b600080600060608486031215612ec357600080fd5b8335612ece81612b66565b95602085013595506040909401359392505050565b80151581146113f457600080fd5b60008060408385031215612f0457600080fd5b8235612f0f81612b66565b91506020830135612c3381612ee3565b60008060008060808587031215612f3557600080fd5b8435612f4081612b66565b93506020850135612f5081612b66565b92506040850135915060608501356001600160401b03811115612f7257600080fd5b8501601f81018713612f8357600080fd5b612f9287823560208401612cfa565b91505092959194509250565b600060208284031215612fb057600080fd5b81356117d081612ee3565b60808101610a0a8284612df8565b634e487b7160e01b600052602160045260246000fd5b602081016005831061300157634e487b7160e01b600052602160045260246000fd5b91905290565b60006020828403121561301957600080fd5b8135600581106117d057600080fd5b600181811c9082168061303c57607f821691505b6020821081141561305d57634e487b7160e01b600052602260045260246000fd5b50919050565b60208082526026908201527f5061796d656e7453706c69747465723a206163636f756e7420686173206e6f2060408201526573686172657360d01b606082015260800190565b6020808252602b908201527f5061796d656e7453706c69747465723a206163636f756e74206973206e6f742060408201526a191d59481c185e5b595b9d60aa1b606082015260800190565b634e487b7160e01b600052601160045260246000fd5b6000821982111561311d5761311d6130f4565b500190565b600081600019048311821515161561313c5761313c6130f4565b500290565b634e487b7160e01b600052603260045260246000fd5b600060ff821660ff81141561316e5761316e6130f4565b60010192915050565b60006020828403121561318957600080fd5b5051919050565b600081516131a2818560208601612ae2565b9290920192915050565b600080845481600182811c9150808316806131c857607f831692505b60208084108214156131e857634e487b7160e01b86526022600452602486fd5b8180156131fc576001811461320d5761323a565b60ff1986168952848901965061323a565b60008b81526020902060005b868110156132325781548b820152908501908301613219565b505084890196505b50505050505061325e61324d8286613190565b64173539b7b760d91b815260050190565b95945050505050565b600082821015613279576132796130f4565b500390565b634e487b7160e01b600052601260045260246000fd5b6000826132a3576132a361327e565b500490565b6001600160a01b03858116825284166020820152604081018390526080606082018190526000906132db90830184612b0e565b9695505050505050565b6000602082840312156132f757600080fd5b81516117d081612aaf565b6000600019821415613316576133166130f4565b5060010190565b60008261332c5761332c61327e565b500690565b60006020828403121561334357600080fd5b81516117d081612ee3565b60008251613360818460208701612ae2565b919091019291505056fea2646970667358221220e16cfd84da608f7b7a855182cfe8fe6112cc5ed7c2ca18df18fb2a9378a97b6464736f6c634300080c0033",
  "linkReferences": {},
  "deployedLinkReferences": {}
}